:020000040800F2
:100000000000082401700008FD6C0008FF6C000867
:10001000016D0008036D0008056D00080000000078
:100020000000000000000000000000001165000852
:10003000076D000800000000B1650008096D0008A8
:10004000517000085170000851700008517000088C
:10005000517000085170000851700008517000087C
:10006000517000085170000851700008517000086C
:10007000517000085170000851700008517000085C
:10008000517000085170000851700008517000084C
:10009000517000085170000851700008517000083C
:1000A00051700008116D000851700008517000086F
:1000B000396D000851700008517000085170000837
:1000C000517000085170000851700008517000080C
:1000D00051700008517000085170000851700008FC
:1000E00051700008517000080000000051700008B5
:1000F00051700008517000085170000851700008DC
:1001000051700008517000085170000851700008CB
:1001100051700008517000085170000851700008BB
:1001200051700008517000085170000851700008AB
:1001300051700008496D00085170000851700008A6
:1001400000000000000000000000000000000000AF
:10015000517000085170000851700008517000087B
:10016000517000085170000851700008517000086B
:100170005170000851700008517000080000000024
:10018000517000085170000851700008517000084B
:10019000517000085170000851700008517000083B
:1001A000517000085170000851700008517000082B
:1001B000517000085170000851700008517000081B
:1001C000517000085170000851700008517000080B
:1001D000517000085170000851700008596D0008F6
:1001E00051700008517000085170000851700008EB
:1001F00051700008517000085170000851700008DB
:1002000051700008517000085170000851700008CA
:1002100051700008517000085170000851700008BA
:100220005170000851700008517000080000000073
:100230005170000851700008000000005170000863
:10024000517000085170000851700008517000088A
:10025000517000085170000851700008517000087A
:10026000517000085170000851700008517000086A
:100270005170000851700008517000080000000023
:1002800051700008000000005170000800000000DC
:0802900000000000517000089D
:1002A00010B5054C237833B9044B13B10448AFF3B0
:1002B00000800123237010BDE40100240000000031
:1002C000E089000808B5034B1BB103490348AFF3AD
:1002D000008008BD00000000E8010024E08900085B
:1002E00053B94AB9002908BF00281CBF4FF0FF319D
:1002F0004FF0FF3000F072B9ADF1080C6DE904CE9B
:1003000000F006F8DDF804E0DDE9022304B07047F0
:100310002DE9F047089E04468846002B4BD18A42BF
:10032000154667D9B2FA82F24AB1C2F1200701FA42
:1003300002F320FA07F7954047EA030894404FEA92
:10034000154E230CB8FBFEF71FFA85FC0EFB178831
:1003500043EA084307FB0CF1994209D9EB1807F16E
:10036000FF3080F01B81994240F21881023F2B44FC
:100370005B1AA4B2B3FBFEF00EFB103344EA034455
:1003800000FB0CFCA44509D92C1900F1FF3380F0C7
:100390000781A44540F2048102382C4440EA07401A
:1003A000A4EB0C0400271EB1D4400023C6E900438F
:1003B0003946BDE8F0878B4209D9002E00F0EB806A
:1003C0000027C6E9000138463946BDE8F087B3FA90
:1003D00083F7002F47D18B4202D3824200F2FA808A
:1003E000841A61EB030301209846002EE0D0C6E991
:1003F0000048DDE702B9FFDEB2FA82F2002A40F0DF
:100400008F80491B4FEA154E1FFA85F80127B1FB73
:10041000FEFC230C0EFB1C1143EA014308FB0CF10C
:10042000994207D9EB180CF1FF3002D2994200F241
:10043000CD808446591AA3B2B1FBFEF00EFB101416
:1004400043EA044408FB00F8A04507D92C1900F141
:10045000FF3302D2A04500F2B6801846A4EB080490
:1004600040EA0C409FE7C7F1200CBB4022FA0CFE8B
:100470004EEA030E01FA07F420FA0CF521FA0CF308
:100480004FEA1E482543B3FBF8F92C0C08FB19333F
:100490001FFA8EFA44EA034309FB0AF49C4202FA6B
:1004A00007F200FA07F10BD91EEB030309F1FF3045
:1004B00080F087809C4240F28480A9F10209734455
:1004C0001B1BADB2B3FBF8F008FB103345EA034445
:1004D00000FB0AFAA24508D91EEB040400F1FF3321
:1004E0006BD2A24569D90238744440EA0940A0FBA6
:1004F0000289A4EB0A044C45C2464B4654D351D062
:10050000002E69D0B1EB0A0564EB030404FA0CFC7D
:10051000FD40FC404CEA0505C6E90054002747E7CA
:10052000C2F1200320FA03F7954001FA02F021FA04
:1005300003F34FEA154E3843010CB3FBFEF71FFAE5
:1005400085F80EFB173341EA034107FB08F38B42A2
:1005500004FA02F407D9691807F1FF3C2FD28B4245
:100560002DD9023F2944CB1A81B2B3FBFEF00EFB1A
:10057000103341EA034100FB08F38B4207D96918A5
:1005800000F1FF3C17D28B4215D902382944C91A11
:1005900040EA07473BE73746304609E70746E7E6C4
:1005A0001846FBE64145ABD2B8EB020A69EB0E02F6
:1005B00001381346A4E76046E9E7184695E7674621
:1005C000D1E781467CE702382C4447E7ACF1020CC6
:1005D0002B442FE7384608E73746E9E6704700BF67
:1005E000034613F8012B002AFBD1181A0138704773
:1005F00010B5032000F01EF8002006F03FFB10B1FC
:100600000124204610BD044606F0EEFAF9E700008A
:10061000034B1B78034A11680B441360704700BFFB
:100620000000002400020024014B1868704700BF3E
:100630000002002410B50446C31E042B0DD8094A3D
:10064000D36823F4E0631B041B0C240204F4E0646D
:100650001C43054B2343D36010BDA221034806F081
:10066000C1FAECE700ED00E00000FA05388A000866
:1006700070B505460C4616460F2A21D80F2C24D8F3
:10068000194BDB68C3F30223C3F10702042A28BF16
:100690000422191D06291DD9033B4FF0FF3101FA31
:1006A00002F224EA02049C4001FA03F326EA03065C
:1006B0003443002D10DB2401E4B20C4B5C5570BDBB
:1006C000BA210B4806F08EFAD8E7BB21084806F09D
:1006D00089FAD5E70023E0E705F00F052401E4B22D
:1006E000044B5C55EBE700BF00ED00E000E400E0E8
:1006F000388A000814ED00E010B5041E0ADB002C57
:1007000007DB04F01F02640901239340044A42F806
:10071000243010BDCE21034806F064FAEFE700BF95
:1007200000E100E0388A00080138B0F1807F0AD289
:10073000064B5860064AF02182F82310002098608A
:1007400007221A6070470120704700BF10E000E0E8
:1007500000ED00E0BFF35F8F044A536A23F4803357
:100760005362034B00225A60704700BF00ED00E067
:1007700090ED00E040F00100054B5860054A536AD7
:1007800043F480335362BFF34F8FBFF36F8F7047D3
:1007900090ED00E000ED00E010B5044643780F2B2B
:1007A00044D82378012B47D86278414B9A6023784C
:1007B000002B77D0237B012B44D8E37A052B18BF7D
:1007C000032B01D9062B43D1A37A022B46D8637B96
:1007D000012B49D8A37B012B4CD8E37B012B4FD8AD
:1007E000637AFF2B52D0237A043BDBB21B2B53D806
:1007F00063682F4AD360217BE37A1B0643EA0173C7
:10080000A17A43EAC143617B43EA8143A17B43EA86
:100810004143E17B43EA0143617A43EA0123217AC0
:1008200043EA410321780B43136110BD40F23D11AF
:10083000204806F0D7F9B4E74FF49F711D4806F041
:10084000D1F9B1E74FF4A3711A4806F0CBF9B4E738
:1008500040F24711174806F0C5F9B5E74FF4A47107
:10086000144806F0BFF9B2E740F24911114806F00A
:10087000B9F9AFE74FF4A5710E4806F0B3F9ACE74C
:1008800040F24B110B4806F0ADF9A9E74FF4A67101
:10089000084806F0A7F9A6E740F24D11054806F012
:1008A000A1F9A5E7024B0022DA601A61BDE700BF9B
:1008B00090ED00E0388A000810B50446042818BFFF
:1008C000002807D1042C0BD0084A136823F0040336
:1008D000136010BD40F2D711054806F083F9F1E727
:1008E000024A136843F004031360F2E710E000E0EB
:1008F000388A0008C16B00EB8103DB6A426C002A76
:1009000074D1F0B416461546144624E00135012D85
:1009100017D04B1C032B00D9CB1E00EB8302D26AED
:10092000D268002A08DB12F0804F05D001228264D1
:100930009A18032A07D9033BC36306644564012060
:1009400052E00E46E5E71346F6E700EB8503DB6A67
:100950000E4629460125DB68002B17DB032C15D832
:10096000013413F0805FD1D113F0005F04D04D1C2F
:10097000032DEAD9CD1EE8E701354F1C032F00D91E
:10098000CF1E00EB8703DB6A3946E4E74DB300EB8B
:100990008603DB6A04E000EB8103DB6A01320E466A
:1009A000AA421ED2196919600021197359739973EB
:1009B0000121D973596931B19960002119735973B3
:1009C00099730321D973D96841F00041D960C46C8F
:1009D00014B141F08041D960711C0329DBD9F11EAB
:1009E000D9E7002343641846F0BC704700207047E5
:1009F00070477047704770477047704710B504469E
:100A0000036803F58B52126812F0400F05D041F2D3
:100A100034129B5813F0400F53D1236803F58B52C7
:100A2000126812F0010F05D041F234129B5813F0F6
:100A3000010F55D1236803F58B52126812F4804FD1
:100A400025D041F234129A5812F4804F1FD0626DB3
:100A500042F00802626503F58B52126812F4805F5F
:100A600048D003F58B52116841F202128A430CBF41
:100A700001220022A26541F234115A5822F4404268
:100A80005A50E02384F851302046FFF7B2FF226825
:100A9000D2F8B03003F4C043B3F5C04F39D0236867
:100AA000D3F8B02012F0100F3FD12368D3F8B02054
:100AB00012F0200F44D12C4B9B6A13F4800F4AD1C3
:100AC00010BDFFF717FF012806D0236803F58B53ED
:100AD00048F240021A60A0E7204605F0E3FDF4E783
:100AE0002046FFF785FF236803F58B5348F2010288
:100AF0001A609FE703F58B531A6802F4CD42B2F5F2
:100B0000CD4F14BF00220122A2654FF4CD421A60DE
:100B1000BAE7D2F8B830E365E02384F851302046D4
:100B2000FFF768FF0023E365B9E7D3F8C03003F0AF
:100B3000600323662046FFF75EFF00232366B4E7C9
:100B4000D3F8C03003F00F0363662046FFF754FF6D
:100B500000236366AFE7044B4FF480029A6220469D
:100B6000FFF74BFFACE700BF800000582DE9F047CE
:100B700082B080460E46B54AB54B904218BF9842A7
:100B80002BD003F50063C31A18BF012302F50062DE
:100B9000904222D00BB3AF4BC31A18BF012302F50A
:100BA0000062904219D0C3B1AB4BC31A18BF0123E6
:100BB00002F50062904210D07BB1A84BC31A18BF57
:100BC000012302F50062904207D033B1A44B984252
:100BD00003D0C421A34806F005F8338833B3736803
:100BE000112B18BF012B1CD9022B1AD0122B18D095
:100BF0009D4A934215D002F58012934211D002F51E
:100C0000801293420DD0A2F5F812934209D002F55A
:100C10008012934205D002F58012934201D0032B3B
:100C200009D1B368022B0BD8002453E0C5218D48AD
:100C300005F0D8FFD3E7C6218A4805F0D3FFF0E7D7
:100C4000C721884805F0CEFFEEE7D821854805F09A
:100C5000C9FF50E0EC21834805F0C4FF7BE0092385
:100C600000E000238B4003430232804941F82230E8
:100C70007F4B1A68FB4303EA0201706810F4803F5F
:100C800001D047EA02017A4A1160516803EA010281
:100C9000706810F4003F01D047EA010274494A60CD
:100CA0004FF0B042126803EA0201706810F4801F2E
:100CB00001D047EA02014FF0B04211605268134080
:100CC000716811F4001F01D047EA02034FF0B042EF
:100CD000536001340F2C00F2B6800125A54037681F
:100CE0002F40BD42F5D17368122B18BF022B12D1D1
:100CF00033690F2BA9D8E208083258F8220004F013
:100D0000070399000F238B4020EA030033698B40CF
:100D1000034348F82230D8F800204FEA440A4FF045
:100D2000030909FA0AF96FEA090909EA0202736874
:100D300003F0030303FA0AF31343C8F8003073689F
:100D40005A1E112B18BF012A01D9122B18D1F36892
:100D5000032B3FF67FAFD8F8082009EA0202F368B8
:100D600003FA0AF31343C8F80830D8F8042022EA3B
:100D700005027368C3F30015A5401543C8F8045075
:100D8000D8F80C3009EA0309B36803FA0AF343EA16
:100D90000903C8F80C30736813F0805F99D0354BA5
:100DA000D3F8F42042F00202C3F8F420D3F8F43070
:100DB00003F002030193019BA208911C2B4B53F8F3
:100DC000210004F0030399000F238B4020EA030065
:100DD0001E4B98453FF445AF03F58063984522D0FC
:100DE00003F58063984520D003F5806398451ED0B5
:100DF00003F5806398451CD003F5806398451AD0AD
:100E000003F58063984518D003F58063984516D0A4
:100E100003F58063984514D003F5806398453FF44B
:100E20001EAF0A231EE701231CE702231AE7032350
:100E300018E7042316E7052314E7062312E7072320
:100E400010E708230EE702B0BDE8F0870000025863
:100E50000004025800140258001C025800240258D2
:100E600000280258748A000800001111000400587C
:100E7000800000580044025870B5054614460E46DE
:100E800021B1012C08D86CB96E8370BD4FF4D871B4
:100E9000054805F0A7FEF4E740F2B111024805F05D
:100EA000A1FEF0E72E83F0E7748A000838B5054606
:100EB0000C4619B16B695C406C6138BD4FF4E3714D
:100EC000014805F08FFEF5E7748A000810B4046845
:100ED000226822F007028B68134323F01803CA68C4
:100EE0001343236003680A685A6103684A689A6179
:100EF0005DF8044B704770B406684C1CE40135592A
:100F000025F0070593682B4323F01803D5682B437E
:100F1000335103681468C9010B44C3F89440036853
:100F200052681944C1F8982070BC704730B4046806
:100F30002268D4F8A05322F020024B69134323F413
:100F400000628B69134323F48062CB69134323F05F
:100F5000C0620B6A134323F000624B6A134323F011
:100F600040438A6A43EA820323F000530A6B134327
:100F700025F48035CA6A154323600368C3F8A0537B
:100F800030BC70472DE9F04105684B1CDB01EC5883
:100F900024F07044EC500768FB5807EBC114D4F8F8
:100FA000E8C0D4F8E450D4F8D440D7F8A06323F0D4
:100FB00020045369234323F400649369234323F4F7
:100FC0008064D369234323F0C064136A234323F06E
:100FD0000064536A234323F07044936A234323F449
:100FE0000033146BB4F1005F38D023F04003D2F823
:100FF00034E04EEA030323F48023146D234323F0EB
:10100000FC73946C43EA04082CF01F0C946B04F0FE
:101010001F0444EA0C0424F00044D36B1C43BEF1CB
:10102000000F03D125F48075136C1D43D2F844C022
:10103000BCF5606F18BFBCF5F05F02D1BEF1400F88
:1010400003D125F4F0554CEA0505D2F84CC004292B
:101050000CD8DFE801F00621272D330043F40033DC
:10106000C3E726F40036D26A46EA42064A1CD20199
:1010700047F802800368C9010B44C3F8E8400368DD
:101080000B44C3F8E45003681944C1F8D4C00368A2
:10109000C3F8A063BDE8F08126F48026D26A46EA50
:1010A0008206E3E726F40026D26A46EAC206DDE7B6
:1010B00026F48016D26A46EA0216D7E726F400160E
:1010C000D26A46EA4216D1E7052933D8DFE801F0B3
:1010D0000B131B232B030268D2F8843343F0010364
:1010E000C2F8843370470268D2F8843343F00203B5
:1010F000C2F8843370470268D2F8843343F00403A3
:10110000C2F8843370470268D2F8843343F008038E
:10111000C2F8843370470268D2F8843343F0100376
:10112000C2F8843370470268D2F8843343F0200356
:10113000C2F8843370470000002800F0B18010B579
:1011400082B004460268574B9A4204D04FF4EA71C9
:10115000554805F047FD6268544B1340002B64D19D
:10116000022384F8C1300023C4F8C430C4F8C83066
:10117000C4F8CC30C4F8D030C4F8D430C4F8D83077
:10118000A36813F0010F2DD02269B2F5804318BF78
:101190000123002A08BF00232BB1B2F5004F02D073
:1011A000B2F5404F47D16269B2F5005318BF012331
:1011B000002A08BF002313B1B2F5405F41D1226875
:1011C000384B9A4243D021680A6822F4404223698E
:1011D00003F44043134323F44053626902F4405242
:1011E00013430B60204605F081FBA36813F0020F48
:1011F00014D0E268B2F5007318BF0123002A08BFBB
:10120000002313B1B2F5407F2FD121680A6822F480
:101210004072E36803F4407313430B60012384F8C6
:10122000C130002284F8C02035E040F2D5111E48BC
:1012300005F0D8FC94E74FF4F3711B4805F0D2FC9D
:10124000B1E740F2E711184805F0CCFCB7E7184BBE
:10125000D3F8F02042F00052C3F8F020D3F8F03079
:1012600003F000530193019BADE740F207210E48C4
:1012700005F0B8FCC9E7D000811A8B002344002197
:101280009961D961196259629962831A9800204460
:1012900001630132D2B2052AEDD9002002B010BD9F
:1012A0000120704700740140B08A0008C0FFFCFFB5
:1012B0000044025870B505460C461646052918BF6D
:1012C000002905D04B1E012B02D9CB1E012B1DD8A6
:1012D000B368072B20D8F368082B18BF002B01D068
:1012E000102B1FD195F8C130DBB2022B25D0022381
:1012F00085F8C130052C1BD0324621462846FFF721
:10130000FAFD012385F8C130002070BD40F27A213A
:101310000B4805F067FCDBE740F27B21084805F04D
:1013200061FCD8E74FF41F71054805F05BFCD9E775
:1013300031462846FFF7CAFDE3E70220E5E700BF94
:10134000B08A000838B505460C46052918BF0029A3
:1013500005D04B1E012B02D9CB1E012B76D895F858
:10136000C030012B7ED0012385F8C030022385F8E0
:10137000C130052C70D02B6803EBC413D3F88C203C
:1013800022F01002C3F88C20374B53F8243013F4AA
:10139000803F04D02A68136823F480331360324BF3
:1013A00053F8243013F4003F09D02B68D3F894236A
:1013B00012F0030F03D11A6822F400321A602A4B8C
:1013C00053F8243013F4802F09D02B68D3F89423DA
:1013D00012F00C0F03D11A6822F480221A60224BFB
:1013E00053F8243013F4002F09D02B68D3F894233A
:1013F00012F0300F03D11A6822F400221A601A4B3F
:1014000053F8243013F4801F09D02B68D3F89423A9
:1014100012F0C00F03D11A6822F480121A60124B26
:1014200053F8243013F4001F09D02B68D3F8942309
:1014300012F4407F03D11A6822F400121A600123CB
:1014400085F8C130002085F8C00038BD40F2363143
:10145000064805F0C7FB82E72A68D36823F010032B
:10146000D36091E70220F0E7F8890008B08A00080D
:1014700070B505460E461446052918BF002906D04A
:101480004B1E012B03D9CB1E012B00F2198162697F
:10149000B2F1200318BF0123002A08BF0023002B4C
:1014A00040F01481A269B2F5006318BF0123002A3D
:1014B00008BF0023002B40F00F81E269B2F5806382
:1014C00018BF0123002A08BF0023002B40F00A8127
:1014D000226A12F17E4318BF0123002A08BF0023AD
:1014E00033B1B2F1806F03D0B2F1C06F40F0008130
:1014F000626A12F1784318BF0123002A08BF002353
:10150000002B40F0FB80E26AB2F5803318BF012364
:10151000002A08BF0023002B40F0F680226B12F156
:10152000604318BF0123002A08BF0023002B40F0AE
:10153000F18095F8C130DBB2022B00F0528195F8B2
:10154000C030012B00F04F81012385F8C030022309
:1015500085F8C130052E00F0E380A36A13F17042D4
:1015600018BF0122002B08BF0022AAB1B3F1005F0F
:1015700012D0B3F1405F0FD0B3F1804F0CD0B3F174
:10158000A04F09D0B3F1C04F06D0B3F1E04F03D064
:10159000B3F1004F40F0EF802268944B1340002BD2
:1015A00040F0EF806268924B1340002B40F0EF80D8
:1015B000626BB2F1400318BF0123002A08BF002369
:1015C000002B40F0EA80A36B33F01F0340F0EB8068
:1015D000E26B12F1004318BF0123002A08BF002369
:1015E000002B40F0E680636B43B9216CB1F580724B
:1015F00018BF0122002908BF002242B1402B01D1AF
:10160000236C23B140F659617A4805F0EBFA636C1C
:10161000B3F5007218BF0122002B08BF0022E2B10F
:10162000B3F5C06F19D0B3F5206F16D0B3F5905F46
:1016300013D0B3F5B05F10D0B3F5D05F0DD0626BAF
:10164000402A05D1B3F5606F18BFB3F5F05F04D041
:1016500040F65B61674805F0C5FAA36C33F0FC7394
:1016600040F0AD80E26C644B1A4240F0AE80226DD7
:10167000B2F5802318BF0123002A08BF0023002BE6
:1016800040F0A980224631462846FFF77BFC2168BE
:10169000F200921B93002B44196262685A62A2689E
:1016A0009A62E268DA6222691A6331462846FFF7D5
:1016B0000BFD012385F8C130002085F8C00070BD06
:1016C0004FF463614B4805F08DFAE0E640F6336174
:1016D000484805F087FAE5E640F63461454805F0EC
:1016E00081FAEAE640F63561424805F07BFAEFE61A
:1016F00040F636613F4805F075FAF9E640F6376185
:101700003C4805F06FFAFEE640F63861394805F0CE
:1017100069FA03E740F63961364805F063FA08E7ED
:10172000A26A12F1704318BF0123002A08BF0023E8
:1017300013B1B2F1005F0CD1236833F07F030ED1F7
:10174000636833F4FE0310D121462846FFF7EEFB11
:101750009DE740F64861274805F044FAECE740F67B
:101760004961244805F03EFAEAE740F64A6121481B
:1017700005F038FAE8E740F652611E4805F032FA03
:101780000AE740F653611B4805F02CFA0AE740F6D9
:101790005461184805F026FA0AE740F655611548E5
:1017A00005F020FA0FE740F65661124805F01AFAE4
:1017B0000EE740F657610F4805F014FA13E740F6BC
:1017C0005C610C4805F00EFA4CE740F65D61094893
:1017D00005F008FA4BE740F65E61064805F002FAAC
:1017E00050E702206BE7022069E700BF2080FFFF7F
:1017F000FFFF2080B08A000801000080704770471A
:10180000704770477047704710B504460368D3F8B7
:10181000882312F0010F04D0D3F8902312F0010FA7
:1018200037D12368D3F8882312F0020F04D0D3F8FD
:10183000902312F0020F32D12368D3F8882312F0DC
:10184000040F04D0D3F8902312F0040F2ED1236894
:10185000D3F8882312F0080F04D0D3F8902312F0A5
:10186000080F2AD12368D3F8882312F0100F04D070
:10187000D3F8902312F0100F26D12368D3F88823D1
:1018800012F0200F04D0D3F8902312F0200F22D1B1
:1018900010BD0122C3F88C23FFF7B0FFC1E702227D
:1018A000C3F88C232046FFF7AAFFC5E70422C3F83C
:1018B0008C232046FFF7A4FFC9E70822C3F88C2336
:1018C0002046FFF79EFFCDE71022C3F88C23204669
:1018D000FFF798FFD1E72022C3F88C232046FFF7BB
:1018E00092FFD5E770477047704770477047704761
:1018F0007047704710B504460368D3F8882312F484
:10190000003F04D0D3F8902312F4003F3FD1236866
:101910005A6812F0010F03D0DA6812F0010F3DD1BE
:1019200023685A6812F0020F03D0DA6812F0020F2F
:101930003BD123685A6812F0040F03D0DA6812F022
:10194000040F39D123685A6812F0080F03D0DA68FF
:1019500012F0080F37D123685A6812F0100F03D025
:10196000DA6812F0100F35D123685A6812F0200F90
:1019700003D0DA6812F0200F33D123685A6812F0CE
:10198000400F03D0DA6812F0400F30D110BD4FF491
:101990000032C3F88C23FFF7A5FFB8E701229A6055
:1019A00005212046FFF7A2FFBAE702229A6005212F
:1019B0002046FFF79CFFBCE704229A6005212046E1
:1019C000FFF796FFBEE708229A6005212046FFF741
:1019D00090FFC0E710229A6005212046FFF785FF9F
:1019E000C2E720229A602046FFF77DFFC5E740222C
:1019F0009A6005212046FFF777FFC7E770477047D9
:101A000070477047704770477047704738B5054654
:101A10000C4602684B1C02EBC3135B6813F0010F0A
:101A200007D002EBC113D3F88C3013F0010F40F054
:101A3000D1802A68631C02EBC3135B6813F0020FAA
:101A400007D002EBC413D3F88C3013F0020F40F030
:101A5000C9802A68631C02EBC3135B6813F0040F90
:101A600007D002EBC413D3F88C3013F0040F40F00E
:101A7000C3802A68631C02EBC3135B6813F0080F72
:101A800007D002EBC413D3F88C3013F0080F40F0EA
:101A9000BD802A68631C02EBC3135B6813F0100F50
:101AA00007D002EBC413D3F88C3013F0100F40F0C2
:101AB000B7802A68631C02EBC3135B6813F0400F06
:101AC00007D002EBC413D3F88C3013F0400F40F072
:101AD000B1802A68631C02EBC3135B6813F0800FAC
:101AE00007D002EBC413D3F88C3013F0800F40F012
:101AF000AB802A68631C02EBC3135B6813F4807F1E
:101B000007D002EBC413D3F88C3013F4807F40F07D
:101B1000A5802A68631C02EBC3135B6813F4007F83
:101B200007D002EBC413D3F88C3013F4007F40F0DD
:101B3000A0802A68631C02EBC3135B6813F4806FF8
:101B400007D002EBC413D3F88C3013F4806F40F04D
:101B50009B802A68631C02EBC3135B6813F4006F5D
:101B600007D002EBC413D3F88C3013F4006F40F0AD
:101B700096802A68631C02EBC3135B6813F4805FD2
:101B800007D002EBC413D3F88C3013F4805F40F01D
:101B900091802A68631C02EBC3135B6813F4005F37
:101BA00007D002EBC413D3F88C3013F4005F40F07D
:101BB0008C802A68631C02EBC3135B6813F4804FAC
:101BC00007D002EBC413D3F88C3013F4804F40F0ED
:101BD000878038BD02EBC1120123C2F88830FFF7BD
:101BE00085FE26E702EBC4120223C2F888302146A4
:101BF0002846FFF77CFE2CE702EBC4120423C2F850
:101C0000883021462846FFF773FE32E702EBC41204
:101C10000823C2F8883021462846FFF76AFE38E7D5
:101C200002EBC4121023C2F8883021462846FFF781
:101C30005CFE3EE702EBC4124023C2F88830214626
:101C40002846FFF751FE44E702EBC4128023C2F896
:101C5000883021462846FFF7D1FE4AE702EBC4123E
:101C60004FF48073C2F8883021462846FFF7C7FE3C
:101C70004FE702EBC4124FF40073C2F888302146DC
:101C80002846FFF7BFFE54E702EBC4124FF480630F
:101C9000C2F8883021462846FFF7B5FE59E702EB27
:101CA000C4124FF40063C2F8883021462846FFF77B
:101CB000ABFE5EE702EBC4124FF48053C2F88830EB
:101CC00021462846FFF7A1FE63E702EBC4124FF45A
:101CD0000053C2F8883021462846FFF792FE68E795
:101CE00002EBC4124FF48043C2F8883021462846E4
:101CF000FFF786FE6DE708B5FF2904D0052905D05A
:101D0000FFF784FE08BDFFF77FFDFBE7FFF7F2FD5D
:101D1000F8E7000010B504460368B3F1200218BFCD
:101D20000122002B08BF00225AB1402B09D0602BA2
:101D300007D0802B05D0A02B03D0C02B01D0E02BE7
:101D400050D16368A3F101112C4A934218BF0229B4
:101D500007D9B3F1021F04D00232934201D0002B05
:101D600046D1274A136823F0E00321680B43136030
:101D7000244B5A6822F480325A601A6822F4803266
:101D80001A604FF0B0431A6822F480321A605A6821
:101D900022F480325A60636813F4803F04D0194AF9
:101DA000136843F480331360636813F4003F04D076
:101DB000144A536843F480335360636813F0010F8F
:101DC00005D04FF0B042136843F48033136063686A
:101DD00013F0020F05D04FF0B042536843F4803344
:101DE000536010BD4FF48871074804F0FBFEA8E76C
:101DF00040F21111044804F0F5FEB2E701000200C0
:101E00000048025880000058EC8A0008024A136813
:101E100043F01003136070470048025838B5044679
:101E2000036813B113F03F0F2BD0236813F0010F99
:101E300042D06268B2F5803318BF0123002A08BF80
:101E4000002313B1B2F5A02F21D1B04B1B6903F0D1
:101E50003803102B27D0AD4B1B6903F03803182B28
:101E60001BD06368B3F5803F5DD0002B71D1A74BC9
:101E70001A6822F480321A601A6822F480221A60EA
:101E800056E040F21311A24804F0ACFECDE74FF447
:101E90008C719F4804F0A6FED7E79C4B9B6A03F029
:101EA0000303022BDDD1994B1B6813F4003F03D0D1
:101EB0006368002B00F02783236813F0020F00F003
:101EC000AD80E368092B18BF012B03D9112B01D07A
:101ED000192B64D12369B3F5805F66D28B4B1B69E4
:101EE00013F0380F6CD0894B1B6903F03803182BA3
:101EF00061D0E368002B00F0D88084490A6822F0A2
:101F0000190213430B60FEF78FFB05467F4B1B68DE
:101F100013F0040F40F0B980FEF786FB401B022847
:101F2000F4D903206AE0794A136843F480331360DC
:101F300063682BB3FEF778FB0546744B1B6813F4FC
:101F4000003FB9D1FEF770FB401B6428F5D9032090
:101F500054E0B3F5A02F09D06C4B1A6822F48032FC
:101F60001A601A6822F480221A60E1E7674B1A6847
:101F700042F480221A601A6842F480321A60D7E76D
:101F8000FEF752FB0546614B1B6813F4003F93D0EC
:101F9000FEF74AFB401B6428F5D903202EE040F2EF
:101FA00049115B4804F01EFE94E74FF4A5715848B0
:101FB00004F018FE92E7554B9B6A13F0030F98D17B
:101FC000524B1B6813F0040F03D0E368002B00F0A2
:101FD0009C824E4A136823F01903E1680B43136097
:101FE000FEF722FB0546494B1B6813F0040F06D190
:101FF000FEF71AFB401B0228F5D9032038BD4348E1
:10200000436823F47C3321694FF47C3292FAA2F2C4
:10201000B2FA82F201FA02F213434360236813F02A
:10202000100F00F08680E269B2F1800318BF01232F
:10203000002A08BF0023002B4BD1236AB3F5805F31
:102040004DD2324B1B6903F03803082B53D02F4B72
:102050001B6903F03803182B47D0E369002B00F00D
:1020600096802A4A136843F080031360FEF7DCFA77
:102070000546264B1B6813F4807F78D1FEF7D4FA0F
:10208000401B0228F5D90320B8E72048436823F411
:102090007C3321694FF47C3292FAA2F2B2FA82F2D6
:1020A00001FA02F213434360B8E7184A136823F0B9
:1020B00001031360FEF7B8FA0546144B1B6813F0D2
:1020C000040FABD0FEF7B0FA401B0228F5D903206D
:1020D00094E74FF4CC710E4804F084FDADE740F274
:1020E00099110B4804F07EFDABE7084B9B6A03F0A7
:1020F0000303012BB1D1054B1B6813F4807F09D07A
:10210000E369802B06D0012078E700BF0044025825
:10211000248B0008AF48436823F0F843216A4FF04E
:10212000F84292FAA2F2B2FA82F201FA02F21343F0
:102130004360236813F0080F57D06369012B3AD826
:102140006369002B3DD0A34A536F43F001035367EB
:10215000FEF76AFA05469F4B5B6F13F0020F44D1FE
:10216000FEF762FA401B0228F5D9032046E799489A
:10217000436823F0F843216A4FF0F84292FAA2F242
:10218000B2FA82F201FA02F213434360D1E7914AB4
:10219000136823F080031360FEF746FA05468D4B63
:1021A0001B6813F4807FC4D0FEF73EFA401B022860
:1021B000F5D9032022E74FF4EC71874804F012FDB3
:1021C000BEE7844A536F23F001035367FEF72CFAEE
:1021D0000546804B5B6F13F0020F06D0FEF724FA22
:1021E000401B0228F5D9032008E7236813F0200FCD
:1021F00032D0A369012B15D8A369CBB1754A1368F6
:1022000043F480531360FEF70FFA0546714B1B68C9
:1022100013F4005F20D1FEF707FA401B0228F5D91E
:102220000320EBE640F203216B4804F0DBFCE3E71C
:10223000684A136823F480531360FEF7F5F90546E6
:10224000644B1B6813F4005F06D0FEF7EDF9401BEA
:102250000228F5D90320D1E6236813F0040F6BD0D0
:10226000A368052B18BF012B13D85C4A136843F4ED
:1022700080731360FEF7D8F90546584B1B6813F4BA
:10228000807F0CD1FEF7D0F9401B6428F5D90320DC
:10229000B4E640F22D21504804F0A4FCE5E7A36821
:1022A000012B0AD00BBB4B4B1A6F22F001021A67AD
:1022B0001A6F22F004021A6704E0464A136F43F0D3
:1022C00001031367A36833B3FEF7AEF90546414B2C
:1022D0001B6F13F0020F2FD1FEF7A6F9401B41F23E
:1022E00088339842F3D9032088E6052B09D0394B6F
:1022F0001A6F22F001021A671A6F22F004021A679D
:10230000E0E7344B1A6F42F004021A671A6F42F08A
:1023100001021A67D6E7FEF787F905462D4B1B6FBA
:1023200013F0020F08D0FEF77FF9401B41F288330B
:102330009842F3D9032061E6636A022B3DD8636AB1
:10234000002B00F0E480234A126902F03802182AB8
:1023500000F0DF80022B40F0C080A36A032B18BF7F
:10236000012B01D9022B2ED1E36A013B3E2B37D83A
:10237000236B043BB3F5FE7F38D8636B013B7F2BA7
:102380003AD8A36B013B7F2B3CD8E36B013B7F2BFF
:102390003ED8104A136823F080731360FEF744F9A7
:1023A00005460C4B1B6813F0007F37D0FEF73CF955
:1023B000401B0228F5D9032020E640F25F210648A1
:1023C00004F010FCBBE74FF41A71034804F00AFC58
:1023D000CAE700BF00440258248B00080048025896
:1023E00040F269214C4804F0FDFBC1E740F26A214C
:1023F000494804F0F7FBC0E740F26B21464804F07F
:10240000F1FBBEE74FF41B71434804F0EBFBBCE764
:1024100040F26D21404804F0E5FBBAE73F4B996A72
:102420003F4A0A40A16AE06A41EA00110A439A62FF
:10243000226B013AC2F30802616B0139490289B289
:102440000A43A16B0139090401F4FE010A43E16B5F
:102450000139090601F0FE410A431A63596B314AFA
:102460000A40A06C4FF6F87191FAA1F1B1FA81F12E
:1024700000FA01F10A435A63DA6A22F00C02216C75
:102480000A43DA62DA6A22F00202616C0A43DA6213
:10249000DA6A42F48032DA62DA6A42F40032DA62EC
:1024A000DA6A42F48022DA62DA6A42F00102DA621F
:1024B0001A6842F080721A60FEF7B6F80446174BAD
:1024C0001B6813F0007F06D1FEF7AEF8001B022850
:1024D000F5D9032092E5002090E5104A136823F017
:1024E00080731360FEF7A0F804460C4B1B6813F0D2
:1024F000007F06D0FEF798F8001B0228F5D90320CC
:102500007CE500207AE5012078E5012076E50020D1
:1025100074E5012072E500BF248B000800440258D6
:102520000CFCFFFF0700FFFF6D4B1B6903F0380336
:10253000102B00F0D180182B0FD00BB169487047D9
:10254000674B1B6813F0200F00F0C880644B1B68BA
:10255000C3F3C1036448D840704770B4604DAC6A9F
:1025600004F00304AE6AC6F30516EB6A03F0010338
:102570006D6BC5F3CC0503FB05F307EE903AF8EE5F
:10258000677A012C60D0F4B1022C00F08980554BA1
:10259000B3FBF6F307EE103AB8EE477A504B1B6BDD
:1025A000C3F30803DFED516A67EEA67A06EE903AB0
:1025B000F8EE666A76EEA77AF7EE006A77EEA67A0C
:1025C00027EE277A5BE0464B1B6813F0200F1FD0E5
:1025D000434A1368C3F3C1034348D840B0FBF6F342
:1025E00007EE103AB8EE477A136BC3F30803DFED3A
:1025F0003F6A67EEA67A06EE903AF8EE666A76EEE5
:10260000A77AF7EE006A77EEA67A27EE277A36E009
:102610003548B0FBF6F307EE103AB8EE477A304B88
:102620001B6BC3F30803DFED316A67EEA67A06EE93
:10263000903AF8EE666A76EEA77AF7EE006A77EEE1
:10264000A67A27EE277A1AE02649B1FBF6F307EEC1
:10265000103AB8EE477A224B1B6BC3F30803DFED49
:10266000236A67EEA67A06EE903AF8EE666A76EE90
:10267000A77AF7EE006A77EEA67A27EE277A184B4C
:102680001B6BC3F34623013307EE903AF8EE676AFB
:10269000C7EE267AFCEEE77A17EE900A70BC704718
:1026A000134AB2FBF6F307EE103AB8EE477A0C4B3A
:1026B0001B6BC3F30803DFED0D6A67EEA67A06EE27
:1026C000903AF8EE666A76EEA77AF7EE006A77EE51
:1026D000A67A27EE277AD2E7054870470248704766
:1026E0000044025800093D000090D003000000396A
:1026F00000127A0070B504460D460368013B3E2B7C
:1027000014D8072D18D87F4B1B6803F00703AB4282
:1027100018D27C4A136823F007032B431360136815
:1027200003F00703AB420DD0012070BD40F2E3215E
:10273000754804F057FAE4E74FF43971724804F031
:1027400051FAE0E7236813F0020F1DD0E368B3F1FC
:10275000080218BF0122002B08BF00226AB1092B12
:102760000BD00A2B09D00B2B07D00C2B05D00D2B2F
:1027700003D00E2B01D00F2B41D1644A936923F073
:102780000F03E1680B439361236813F0010F00F01E
:10279000A680A368B3F5006218BF0122002B08BF12
:1027A0000022A2B1B3F5106F11D0B3F5206F0ED097
:1027B000B3F5306F0BD0B3F5406F08D0B3F5506F61
:1027C00005D0B3F5606F02D0B3F5706F1DD16368AB
:1027D000032B20D84D4A936923F47063A1680B43FF
:1027E00093616368022B1CD0032B3DD0012B42D098
:1027F000464A126812F0040F18D1012095E740F202
:10280000FB21414804F0EEF9B7E740F202313E48BF
:1028100004F0E8F9DBE740F203313B4804F0E2F969
:10282000D8E7126812F4003F00F00C8137490A69BA
:1028300022F0070213430B61FDF7F6FE06466368BC
:10284000022B1FD0032B2CD0012B39D02F4B1B690F
:1028500013F0380F43D0FDF7E7FE801B41F28833B9
:102860009842F3D9032060E7284A126812F0007FEB
:10287000DCD1012059E7254A126812F4807FD5D1B6
:10288000012052E7214B1B6903F03803102B26D09F
:10289000FDF7CAFE801B41F288339842F2D903202B
:1028A00043E71A4B1B6903F03803182B17D0FDF7C9
:1028B000BBFE801B41F288339842F2D9032034E7F3
:1028C000124B1B6903F03803082B08D0FDF7ACFE50
:1028D000801B41F288339842F2D9032025E7094B47
:1028E0001B6803F00703AB4212D9064A136823F0B2
:1028F00007032B431360136803F00703AB4207D0B1
:10290000012012E700200052248B000800440258E6
:10291000236813F0040F15D02369B3F1400218BFE8
:102920000122002B08BF00222AB1502B03D0602BBC
:1029300001D0702B6ED1444A936923F07003216952
:102940000B439361236813F0080F15D06369B3F14B
:10295000400218BF0122002B08BF00222AB1502BD1
:1029600003D0602B01D0702B5AD1374AD36923F0A2
:10297000700361690B43D361236813F0100F18D003
:10298000A369B3F5806218BF0122002B08BF0022A3
:1029900042B1B3F5A06F05D0B3F5C06F02D0B3F567
:1029A000E06F43D1284AD36923F4E063A1690B4364
:1029B000D361236813F0200F15D0E369B3F140020F
:1029C00018BF0122002B08BF00222AB1502B03D0D0
:1029D000602B01D0702B2FD11B4A136A23F0700398
:1029E000E1690B431362FFF79FFD174B9B6903F4EB
:1029F00070634FF4807292FAA2F2B2FA82F2D3407C
:102A0000124AD35CD840124B1860002004F036F90B
:102A100000208AE640F269310E4804F0E3F88AE7C4
:102A20004FF45C710B4804F0DDF89EE740F277311B
:102A3000084804F0D7F8B5E740F27F31054804F0C4
:102A4000D1F8C9E7012070E600440258288A00083E
:102A50000C000024248B000808B501F0E1F9084BB4
:102A60009B6903F00F03012292FAA2F2B2FA82F2FA
:102A7000D340044AD35CD840034B186008BD00BF64
:102A800000440258288A00081000002408B5FFF707
:102A9000E3FF074BDB6903F07003102292FAA2F206
:102AA000B2FA82F2D340034AD35CD84008BD00BFDB
:102AB00000440258288A000808B5FFF7CDFF074BED
:102AC000DB6903F4E0634FF4807292FAA2F2B2FA87
:102AD00082F2D340024AD35CD84008BD0044025879
:102AE000288A00083F230360114B1A6902F007028D
:102AF00042609A6902F4706282609A6902F00F0281
:102B0000C2609A6902F070020261DA6902F0700232
:102B10004261DA6902F4E06282611B6A03F07003C9
:102B2000C361044B1B6803F007030B60704700BFD1
:102B3000004402580020005270B504460D46036858
:102B4000013B3E2B2BD86368043BB3F5FE7F2CD8AA
:102B5000A368013B7F2B2ED82369013B7F2B30D804
:102B6000E368013B7F2B32D8464B9B6A03F003039B
:102B7000032B00F08580434A136823F080631360C1
:102B8000FDF752FD06463F4B1B6813F0006F24D043
:102B9000FDF74AFD801B0228F5D9032071E04FF4B0
:102BA0001A61394804F01EF8CDE740F6A111364805
:102BB00004F018F8CCE740F6A211334804F012F8FC
:102BC000CAE740F6A311304804F00CF8C8E740F615
:102BD000A4112D4804F006F8C6E72A4A936A23F4A4
:102BE0007C33216843EA013393626368013BC3F39A
:102BF0000803A1680139490289B20B43E168013930
:102C0000090401F4FE010B4321690139090601F0B1
:102C1000FE410B439363D36A23F0C00361690B4306
:102C2000D362D36A23F02003A1690B43D362BDB9F9
:102C3000D36A43F40023D362124A136843F08063DB
:102C40001360FDF7F1FC04460E4B1B6813F0006F98
:102C500014D1FDF7E9FC001B0228F5D9032010E090
:102C6000012D05D0074AD36A43F40013D362E3E78A
:102C7000044AD36A43F48013D362DDE7002000E006
:102C8000012070BD004402585C8B000870B50446FA
:102C90000D460368013B3E2B2BD86368043BB3F51C
:102CA000FE7F2CD8A368013B7F2B2ED82369013BE4
:102CB0007F2B30D8E368013B7F2B32D8464B9B6A91
:102CC00003F00303032B00F08580434A136823F0CD
:102CD00080531360FDF7A8FC06463F4B1B6813F0BA
:102CE000005F24D0FDF7A0FC801B0228F5D903204B
:102CF00071E040F6FB11394803F074FFCDE740F670
:102D0000FC11364803F06EFFCCE740F6FD11334866
:102D100003F068FFCAE740F6FE11304803F062FF97
:102D2000C8E740F6FF112D4803F05CFFC6E72A4ACA
:102D3000936A23F07C73216843EA015393626368CA
:102D4000013BC3F30803A1680139490289B20B436F
:102D5000E1680139090401F4FE010B4321690139DD
:102D6000090601F0FE410B431364D36A23F4406368
:102D700061690B43D362D36A23F40073A1690B43E7
:102D8000D362BDB9D36A43F48003D362124A136895
:102D900043F080531360FDF747FC04460E4B1B685D
:102DA00013F0005F14D1FDF73FFC001B0228F5D99A
:102DB000032010E0012D05D0074AD36A43F0807349
:102DC000D362E3E7044AD36A43F40003D362DDE746
:102DD000002000E0012070BD004402585C8B000818
:102DE000F8B50446036813F0006F2BD0436EB3F5BB
:102DF000801F18D007D9B3F5001F1DD0B3F5401FB1
:102E00002ED1002606E05BBBA14AD36A43F400330F
:102E1000D36200269E4A136D23F44013616E0B4368
:102E20001365002510E002210430FFF785FE0646F9
:102E3000002EEFD0354607E002212430FFF726FFB1
:102E40000646F5E700252E46236813F4807F28D038
:102E5000636D042B22D8DFE803F006141A0B0B0075
:102E600001252E46F0E78A4AD36A43F40033D36241
:102E7000AEB9874A136D23F00703616D0B431365E9
:102E80000FE00021201DFFF757FE0646F0E7002166
:102E900004F12400FFF7FAFE0646E9E70126354370
:102EA000EDB2236813F4007F14D0A36D802B35D0CE
:102EB00008D823B3402B0AD10021201DFFF73CFE88
:102EC000064621E0C02B1FD0B3F5807F1CD0012621
:102ED0003543EDB2236813F4806F2FD0D4F8A430BB
:102EE000B3F5800F4FD020D8002B3CD0B3F5001F96
:102EF00021D10021201DFFF71FFE064638E0644A5D
:102F0000D36A43F40033D362002EE1D1604A136DDB
:102F100023F4E073A16D0B431365DBE7002104F19B
:102F20002400FFF7B3FE0646EEE7B3F5C00F1FD04F
:102F3000B3F5000F1CD001263543EDB2236813F41E
:102F4000006F30D0D4F8A830B3F1007F48D021D83A
:102F5000002B35D0B3F1807F22D10021201DFFF757
:102F6000EBFD064631E04A4AD36A43F40033D362AC
:102F7000002EE1D1464A936D23F46003D4F8A410E7
:102F80000B439365DAE7002104F12400FFF77EFE8E
:102F90000646EDE7B3F1407F17D0B3F1806F14D050
:102FA00001263543EDB2236813F0007F23D0A36CD4
:102FB000102B34D01BD9202B40D0302B34D017E02D
:102FC000334AD36A43F40033D362002EE9D1304A46
:102FD000936D23F0E063D4F8A8100B439365E2E708
:102FE000002104F12400FFF751FE0646EDE7DBB1B6
:102FF00001263543EDB2236813F4805F2DD0E36DD5
:10300000B3F5005F55D01FD8002B43D0B3F5805FD8
:1030100020D10021201DFFF78FFD06463FE01C4A0E
:10302000D36A43F40033D362002EE2D1184AD36C42
:1030300023F03003A16C0B43D364DCE70221201D95
:10304000FFF77AFD0646EFE7B3F5405F27D0B3F50B
:10305000804F24D001263543EDB2236813F4005F7E
:103060003AD0236EB3F5003F53D029D83BB1B3F526
:10307000803F2ED10121201DFFF75EFD06464EBB8D
:10308000034A136D23F4E023216E0B43136523E001
:10309000004402584D4AD36A43F40033D362002EF1
:1030A000D9D14A4A136D23F4E043E16D0B43136514
:1030B000D3E7002104F12400FFF7E8FD0646EEE720
:1030C000B3F5802FDBD0B3F5A02FD8D0B3F5403FB8
:1030D000D5D001263543EDB2236813F4804F2BD0B1
:1030E000D4F8AC30B3F1005F40D019D83BB1B3F1A4
:1030F000805F1ED10121201DFFF71EFD0646CEB9BF
:10310000324A936D23F0E043D4F8AC100B4393653F
:1031100012E0012104F12400FFF7B8FD0646AEE7F6
:10312000B3F1804FEBD0B3F1A04FE8D0B3F1405FE3
:10313000E5D001263543EDB2236813F4004F0AD0E1
:10314000E36EB3F1805F18D0B3F1005F24D0CBB150
:1031500001263543EDB2236813F0807F3BD0636CCA
:10316000032B35D8DFE803F0231E2C23012104F1C3
:103170002400FFF78BFD0646C1E7144AD36A43F4E7
:103180000033D362002EE4D1104A136D23F0405374
:10319000E16E0B431365DEE70121201DFFF7CCFC38
:1031A0000646EFE7094AD36A43F40033D36286B98F
:1031B000064AD36C23F00303616C0B43D3640AE02B
:1031C0000221201DFFF7B8FC0646F0E70044025834
:1031D00001263543EDB2236813F4800F00F07B81A4
:1031E000D4F8B030B3F5807F18BFB3F5007F00F09E
:1031F0000D81B3F50C5F00F00981B3F54C5F00F071
:103200000581B3F5864F00F00181B3F5A64F00F0BC
:10321000FD80B3F5C64F00F0F980B3F5E64F00F03E
:10322000F580B3F5034F00F0F180B3F5134F00F0D4
:10323000ED80B3F5234F00F0E980B3F5334F00F094
:10324000E580B3F5434F00F0E180B3F5534F00F054
:10325000DD80B3F5634F00F0D980B3F5734F00F014
:10326000D580AC4A934200F0D18002F5805293425F
:1032700000F0CC8002F58052934200F0C78002F546
:103280008052934200F0C28002F58052934200F0D7
:10329000BD8002F58052934200F0B88002F5805262
:1032A000934200F0B38002F58052934200F0AE806A
:1032B00002F58052934200F0A98002F580529342B9
:1032C00000F0A48002F58052934200F09F8002F546
:1032D0008052934200F09A8002F58052934200F0AF
:1032E000958002F58052934200F0908002F5805262
:1032F000934200F08B8002F58052934200F086806A
:1033000002F58052934200F0818002F58052934290
:103310007CD002F58052934278D002F580529342DD
:1033200074D002F58052934270D002F580529342DD
:103330006CD002F58052934268D002F580529342DD
:1033400064D002F58052934260D002F580529342DD
:103350005CD002F58052934258D002F580529342DD
:1033600054D002F58052934250D002F580529342DD
:103370004CD002F58052934248D002F580529342DD
:1033800044D002F58052934240D002F580529342DD
:103390003CD002F58052934238D002F580529342DD
:1033A00034D002F58052934230D002F580529342DD
:1033B0002CD002F58052934228D002F580529342DD
:1033C00024D002F58052934220D002F580529342DD
:1033D0001CD002F58052934218D002F580529342DD
:1033E00014D002F58052934210D002F580529342DD
:1033F0000CD002F58052934208D002F580529342DD
:1034000004D040F2A921444803F0ECFB434A13687E
:1034100043F480731360FDF707F907463F4B1B68C1
:1034200013F4807F05D1FDF7FFF8C01B6428F5D9A0
:103430000326002E4DD13A4B1B6FD4F8B0205340D9
:1034400013F4407F0CD0364B1A6F22F44072196F80
:1034500041F480311967196F21F4803119671A67B7
:10346000D4F8B030B3F5807F15D07EBBD4F8B0303F
:1034700003F44072B2F5407F1ED0294A136923F449
:103480007C53136126490B6FD4F8B020C2F30B02B2
:1034900013430B671FE0FDF7C7F80746204B1B6F70
:1034A00013F0020FE1D1FDF7BFF8C01B41F28833E2
:1034B0009842F3D90326D8E71948026922F47C52CE
:1034C000184901EA131313430361DBE73543EDB2F7
:1034D00001E03543EDB2236813F0010F3CD0A36F38
:1034E000282B36D8DFE803F0253535353535353529
:1034F00020353535353535352E3535353535353598
:10350000253535353535353525353535353535358B
:10351000250000BF000301005C8B00080048025832
:1035200000440258CFFFFF000121201DFFF704FBDC
:1035300006467EB96C4A536D23F03803A16F0B43E6
:10354000536509E0012104F12400FFF79FFB0646C3
:10355000EFE701263543EDB2236813F0020F1FD0C9
:10356000636F052B19D8DFE803F00803110808087A
:103570000121201DFFF7E0FA06467EB95A4A536D35
:1035800023F00703616F0B43536509E0012104F148
:103590002400FFF77BFB0646EFE701263543EDB23B
:1035A000236813F0040F21D0D4F89030052B1AD8DB
:1035B000DFE803F00803120808080121201DFFF7C7
:1035C000BBFA064686B9484A936D23F00703D4F840
:1035D00090100B43936509E0012104F12400FFF7EB
:1035E00055FB0646EEE701263543EDB2236813F09E
:1035F000200F24D0D4F88C30B3F1005F3CD012D827
:103600003BB1B3F1805F17D10021201DFFF794FA81
:10361000064696B9344A536D23F0E043D4F88C1033
:103620000B4353650BE0B3F1804FF2D0B3F1A04FE1
:10363000EFD0B3F1405FECD001263543EDB2236803
:1036400013F0400F2BD0D4F89830B3F5006F44D06E
:1036500019D83BB1B3F5806F1ED10021201DFFF7B3
:103660006BFA0646CEB9204A936D23F4E053D4F8A2
:1036700098100B43936512E0022104F12400FFF738
:1036800005FB0646C5E7B3F5805FEBD0B3F5A05F59
:10369000E8D0B3F5406FE5D001263543EDB223689D
:1036A00013F0800F2ED0D4F89C30B3F5804F00F08B
:1036B000B1801BD83BB1B3F5005F20D10021201DA4
:1036C000FFF73AFA0646DEB9074A936D23F46043E2
:1036D000D4F89C100B43936514E0022104F12400FC
:1036E000FFF7D4FA0646BDE700440258B3F5004F91
:1036F000E9D0B3F5204FE6D0B3F5C04FE3D00126B3
:103700003543EDB2236813F0080F16D0D4F880309B
:10371000B3F5805F18BFB3F5005F03D013B1B3F505
:10372000405F7ED1D4F88030B3F5805F7FD0B1495F
:103730004A6D22F4405213434B65236813F0100F77
:1037400016D0D4F89430B3F5807F18BFB3F5007F5E
:1037500003D013B1B3F5405F71D1D4F89430B3F511
:10376000807F72D0A3498A6D22F4407213438B6527
:10377000236813F4002F0CD0D4F8A030B3F5803FA9
:103780007BD0B3F5003F6DD0002B66D001263543CA
:10379000EDB2236813F4802F0ED0D4F88430B3F543
:1037A000001F00F08180B3F5401F72D0B3F5801F79
:1037B0006AD001263543EDB2236813F4803F12D05E
:1037C000E26CB2F5803318BF0123002A08BF002342
:1037D000002B70D1E36C002B73D0B3F5803F7FD00A
:1037E00001263543EDB2236813F0005F7ED12368D4
:1037F00013F4003F00F08780E36FB3F5807F00F0A3
:10380000E3807BD9B3F5007F00F0E380B3F5407F20
:1038100076D1DEE0022104F12400FFF737FA0646F4
:1038200051E740F22741744803F0DCF97AE70221BE
:1038300004F12400FFF72AFA0543EDB27DE740F2D8
:1038400039416D4803F0CEF987E7022104F12400E5
:10385000FFF71CFA0543EDB28AE70021201DFFF7B0
:103860006BF90646002E92D1624A936D23F44033E1
:10387000D4F8A0100B4393658BE7022104F12400D8
:10388000FFF704FA0646EDE75A4AD36A43F40033D9
:10389000D362002E8ED1574A536D23F44013D4F8CF
:1038A00084100B43536587E7012104F12400FFF7DF
:1038B000EDF90646EDE740F29E414F4803F092F9DC
:1038C00088E74C4AD36A43F40033D362002E88D190
:1038D000484AD36C23F48033E16C0B43D36482E712
:1038E0000221201DFFF728F90646EFE7022104F127
:1038F0002400FFF7CBF90543EDB278E7002B68D041
:1039000001263543EDB2236813F4801F10D0226FD7
:1039100012F1004318BF0123002A08BF0023002B27
:1039200061D1344A136D23F00043216F0B431365BB
:10393000236813F0805F12D0D4F8B420B2F580432E
:1039400018BF0123002A08BF0023002B56D1294AA3
:10395000136923F48043D4F8B4100B431361236834
:1039600013F4001F10D0A26E12F17F4318BF012381
:10397000002A08BF0023002B46D11E4A136D23F0F6
:103980008073A16E0B431365236813F0804F14D02E
:10399000D4F8B820B2F5004318BF0123002A08BFAD
:1039A0000023002B36D1134B1A6922F400421A610E
:1039B0001A69D4F8B8100A431A612368002B2FDB68
:1039C00005B101252846F8BD0A4AD36A43F40033FD
:1039D000D362002E95D1074A536D23F44073E16FF3
:1039E0000B4353658FE74FF49F61034803F0FAF8E8
:1039F00097E700BF004402585C8B000840F2025178
:103A0000144803F0EFF8A2E740F20C51114803F01C
:103A1000E9F8B2E740F216510E4803F0E3F8C2E7C6
:103A2000226D12F1704318BF0123002A08BF002342
:103A300013B1B2F1005F07D1074AD36C23F04053B2
:103A4000216D0B43D364BBE74FF4A461014803F03D
:103A5000C9F8F1E75C8B00080044025808B5FEF78E
:103A6000FBFF074B1B6A03F07003102292FAA2F2CD
:103A7000B2FA82F2D340034AD35CD84008BD00BFFB
:103A800000440258288A0008F0B46D4CA76A07F079
:103A90000307A16AC1F3053CE66A06F01006E36B72
:103AA000C3F3CC0306FB03F607EE906AB8EE677A21
:103AB000012F60D0F7B1022F00F0A580614BB3FB5E
:103AC000FCF307EE903AF8EE677A5D4B9B6BC3F31D
:103AD0000803DFED5D6A27EE267A06EE903AF8EEEF
:103AE000666A36EE877AF7EE006A37EE267A67EE78
:103AF000877A5BE0524B1B6813F0200F1FD0504AAF
:103B00001368C3F3C103514DDD40B5FBFCF307EE71
:103B1000903AF8EE677A936BC3F30803DFED4A6AD5
:103B200027EE267A06EE903AF8EE666A36EE877A47
:103B3000F7EE006A37EE267A67EE877A36E0434C76
:103B4000B4FBFCF307EE903AF8EE677A3C4B9B6BC4
:103B5000C3F30803DFED3C6A27EE267A06EE903ABF
:103B6000F8EE666A36EE877AF7EE006A37EE267A66
:103B700067EE877A1AE03349B1FBFCF307EE903A1F
:103B8000F8EE677A2E4B9B6BC3F30803DFED2E6ACA
:103B900027EE267A06EE903AF8EE666A36EE877AD7
:103BA000F7EE006A37EE267A67EE877A244A936B3F
:103BB000C3F34623013307EE103AB8EE477AC7EE57
:103BC000876AFCEEE66AC0ED006A936BC3F30643B6
:103BD000013307EE103AB8EE477AC7EE876AFCEE7B
:103BE000E66AC0ED016A936BC3F30663013307EE27
:103BF000103AB8EE477AC7EE876AFCEEE66AC0ED87
:103C0000026AF0BC7047124AB2FBFCF307EE903A2E
:103C1000F8EE677A0A4B9B6BC3F30803DFED0A6A81
:103C200027EE267A06EE903AF8EE666A36EE877A46
:103C3000F7EE006A37EE267A67EE877AB6E700BFBE
:103C40000044025800093D00000000390090D003F4
:103C500000127A00F0B46D4CA76A07F00307A16A5E
:103C6000C1F3055CE66A06F48076636CC3F3CC03AB
:103C700006FB03F607EE906AB8EE677A012F60D074
:103C8000F7B1022F00F0A580614BB3FBFCF307EE08
:103C9000903AF8EE677A5D4B1B6CC3F30803DFEDD7
:103CA0005D6A27EE267A06EE903AF8EE666A36EE00
:103CB000877AF7EE006A37EE267A67EE877A5BE05E
:103CC000524B1B6813F0200F1FD0504A1368C3F3E8
:103CD000C103514DDD40B5FBFCF307EE903AF8EE21
:103CE000677A136CC3F30803DFED4A6A27EE267A7E
:103CF00006EE903AF8EE666A36EE877AF7EE006ADC
:103D000037EE267A67EE877A36E0434CB4FBFCF355
:103D100007EE903AF8EE677A3C4B1B6CC3F308034E
:103D2000DFED3C6A27EE267A06EE903AF8EE666AF8
:103D300036EE877AF7EE006A37EE267A67EE877AF4
:103D40001AE03349B1FBFCF307EE903AF8EE677ADC
:103D50002E4B1B6CC3F30803DFED2E6A27EE267A89
:103D600006EE903AF8EE666A36EE877AF7EE006A6B
:103D700037EE267A67EE877A244A136CC3F346231C
:103D8000013307EE103AB8EE477AC7EE876AFCEEC9
:103D9000E66AC0ED006A136CC3F30643013307EE15
:103DA000103AB8EE477AC7EE876AFCEEE66AC0EDD5
:103DB000016A136CC3F30663013307EE103AB8EEE1
:103DC000477AC7EE876AFCEEE66AC0ED026AF0BC8D
:103DD0007047124AB2FBFCF307EE903AF8EE677AAE
:103DE0000A4B1B6CC3F30803DFED0A6A27EE267A41
:103DF00006EE903AF8EE666A36EE877AF7EE006ADB
:103E000037EE267A67EE877AB6E700BF004402589D
:103E100000093D00000000390090D00300127A0034
:103E200008B5FEF781FB084B9B6903F470634FF400
:103E3000807292FAA2F2B2FA82F2D340034AD35CC1
:103E4000D840034B186008BD00440258288A000877
:103E50000C00002410B4036A046A24F00104046214
:103E6000846924F0F00444EA021223F00A030B43AD
:103E7000826103625DF8044B704710B4036A23F05B
:103E8000100303628469036A24F4704444EA023232
:103E900023F0A00343EA0113826103625DF8044B3F
:103EA000704700008268034B134041F0070119433B
:103EB000816070478FFFCFFF10B504460368244A26
:103EC000934218BFB3F1804F34D0A2F57C429342A5
:103ED00030D002F5806293422CD002F5806293428A
:103EE00028D002F58062934224D002F5806293428A
:103EF00020D002F5704293421CD0A2F56C4293424E
:103F000018D002F58062934214D002F58062934289
:103F100010D002F5903293420CD002F580629342A9
:103F200008D002F58062934204D04FF492710948A0
:103F300002F058FE022384F83D302268138843F0D3
:103F400001031380012384F83D30002010BD00BF21
:103F500000000140988B000810B504460368234A0E
:103F6000934218BFB3F1804F34D0A2F57C42934204
:103F700030D002F5806293422CD002F580629342E9
:103F800028D002F58062934224D002F580629342E9
:103F900020D002F5704293421CD0A2F56C429342AD
:103FA00018D002F58062934214D002F580629342E9
:103FB00010D002F5903293420CD002F58062934209
:103FC00008D002F58062934204D04FF4AA710848E9
:103FD00002F008FE2268D36843F00103D360226830
:103FE000138843F001031380002010BD000001403E
:103FF000988B0008704770477047704710B50446AB
:1040000003681A6912F0020F11D0DA6812F0020F79
:104010000DD06FF002021A610123037703689B69D8
:1040200013F0030F79D0FFF7E6FF0023237723680F
:104030001A6912F0040F12D0DA6812F0040F0ED0D1
:104040006FF004021A610223237723689B6913F43B
:10405000407F68D02046FFF7CEFF002323772368F8
:104060001A6912F0080F12D0DA6812F0080F0ED099
:104070006FF008021A61042323772368DB6913F0C9
:10408000030F57D02046FFF7B6FF0023237723689E
:104090001A6912F0100F12D0DA6812F0100F0ED059
:1040A0006FF010021A61082323772368DB6913F489
:1040B000407F46D02046FFF79EFF002323772368EA
:1040C0001A6912F0010F03D0DA6812F0010F3FD124
:1040D00023681A6912F0800F03D0DA6812F0800F9B
:1040E0003DD123681A6912F4807F03D0DA6812F098
:1040F000800F3BD123681A6912F0400F03D0DA68B1
:1041000012F0400F39D123681A6912F0200F03D042
:10411000DA6812F0200F37D110BDFFF76BFF204691
:10412000FFF76AFF81E72046FFF764FF2046FFF7AD
:1041300063FF92E72046FFF75DFF2046FFF75CFF35
:10414000A3E72046FFF756FF2046FFF755FFB4E7E9
:104150006FF001021A61204602F04EFCB8E76FF0E2
:1041600080021A61204600F09EFCBAE76FF08002E0
:104170001A61204600F097FCBCE76FF040021A611C
:104180002046FFF73AFFBEE76FF020021A61204693
:1041900000F088FCC0E7000070B403889BB2384C84
:1041A000A04214BF00240124B0F1804F14BF224666
:1041B00044F00102AAB9334DA84214BF00250125DD
:1041C000314EB0420DD065B905F1804505F5823517
:1041D000A84214BF0025012506F50066B04200D0B4
:1041E0001DB123F070034D682B4312BB254A90424A
:1041F00014BF00220122244DA8421AD0CAB902F1EC
:10420000804202F58232904214BF0022012205F55D
:104210000065A8420DD062B91C4A904214BF00222A
:10422000012205F59A35A84203D012B9184A9042E6
:1042300003D123F44073CA68134323F080034A690F
:1042400013439BB203808A68C2620A880285114BBD
:10425000984214BF234644F001035BB90B4B9842CC
:1042600014BF002301230C4A904203D013B9084B1A
:10427000984201D10B8A03860123436170BC7047C9
:1042800000000140000800400004004000440140DC
:10429000004801400004014000400140002876D061
:1042A00010B5044603683B4A934218BFB3F1804FF0
:1042B00033D0A2F57C4293422FD002F58062934224
:1042C0002BD002F58062934227D002F580629342A0
:1042D00023D002F5806293421FD002F570429342D0
:1042E0001BD0A2F56C42934217D002F58062934234
:1042F00013D002F5806293420FD002F590329342C0
:104300000BD002F58062934207D002F5806293429F
:1043100003D0C821204802F065FCA368B3F1100265
:1043200018BF0122002B08BF00222AB1202B03D086
:10433000402B01D0602B1AD12269B2F5807318BFCF
:104340000123002A08BF002313B1B2F5007F13D167
:1043500094F83D30ABB1022384F83D30211D206834
:10436000FFF71AFF012384F83D30002010BDC9215A
:10437000094802F037FCDFE7CA21074802F032FCA7
:10438000E6E784F83C30204602F0A4FDE3E7012094
:10439000704700BF00000140988B000810B484688B
:1043A00024F47F4442EA03230B43234383605DF8F4
:1043B000044B704738B590F83C30012B00F0B382C5
:1043C0000D460446012380F83C30022380F83D303E
:1043D0000B68B3F5805F18BFB3F5005F0ED06BB10B
:1043E000102B0BD0202B09D0302B07D0402B05D021
:1043F000502B03D0602B01D0702B4ED122689168D6
:10440000A04B0B4093602B68402B00F0FE814AD9F3
:10441000702B00F03F8100F29D80502B00F0A581B1
:10442000602B40F027812368974A934218BFB3F16D
:10443000804F18D0A2F57C42934214D002F58062DE
:10444000934210D002F5806293420CD002F578427C
:10445000934208D002F57052934204D041F26401B5
:104460008A4802F0BFFB6B68B3F5004F18BF002B02
:1044700005D023B1022B02D00A2B40F0BA81EB68A1
:104480000F2B00F2BC81EA6869682068FFF7F5FC31
:1044900060212068FFF706FDECE041F213017B4844
:1044A00002F0A0FBAAE7102B00F0F3812AD9202B01
:1044B00000F01482302B40F0DD802368724A934272
:1044C00018BFB3F1804F18D0A2F57C42934214D0AC
:1044D00002F58062934210D002F5806293420CD0C4
:1044E00002F57842934208D002F57052934204D00C
:1044F00041F29A01654802F075FB30212068FFF710
:10450000D1FCB7E0002B40F0B58023685E4A9342AF
:1045100018BFB3F1804F18D0A2F57C42934214D05B
:1045200002F58062934210D002F5806293420CD073
:1045300002F57842934208D002F57052934204D0BB
:1045400041F28201514802F04DFB00212068FFF743
:10455000A9FC8FE0B3F5805F4BD0B3F5005F40F06E
:1045600089802368484A934218BFB3F1804F14D022
:10457000A2F57C42934210D002F5806293420CD0A7
:1045800002F58062934208D002F57842934204D04B
:1045900041F242013D4802F025FBAA68B2F5805382
:1045A00018BF0123002A08BF002333B1B2F5005F12
:1045B00003D0B2F5405F40F0C6806B68B3F5004FA2
:1045C00018BF002B05D023B1022B02D00A2B40F0DC
:1045D000C080EB680F2B00F2C280EB686A68A968A4
:1045E0002068FFF7DBFE2268936843F48043936002
:1045F00040E02368244A934218BFB3F1804F34D07F
:10460000A2F57C42934230D002F5806293422CD0D6
:1046100002F58062934228D002F58062934224D052
:1046200002F58062934220D002F5704293421CD082
:10463000A2F56C42934218D002F58062934214D0E6
:1046400002F58062934210D002F5903293420CD072
:1046500002F58062934208D002F58062934204D052
:1046600041F21F01094802F0BDFA22689168084B27
:104670000B409360012384F83D30002084F83C0017
:1046800038BD00BF8800CEFF00000140988B0008B5
:10469000F8FFFEFF2368A54A934218BFB3F1804F8D
:1046A00014D0A2F57C42934210D002F5806293426E
:1046B0000CD002F58062934208D002F57842934212
:1046C00004D041F228019A4802F08CFAAA68B2F5A7
:1046D000805318BF0123002A08BF00232BB1B2F575
:1046E000005F02D0B2F5405F1BD16B68B3F5004F9D
:1046F00018BF002B04D01BB1022B01D00A2B16D1FE
:10470000EB680F2B19D8EB686A68A9682068FFF777
:1047100045FE22689168874B0B4043F07703936016
:10472000A8E741F22B01824802F05CFADDE741F292
:104730002C017F4802F056FAE2E741F22D017C4855
:1047400002F050FADFE741F24401794802F04AFAF8
:1047500033E741F24501764802F044FA39E741F285
:104760004601734802F03EFA37E723686F4A9342E6
:1047700018BFB3F1804F18D0A2F57C42934214D0F9
:1047800002F58062934210D002F5806293420CD011
:1047900002F57842934208D002F57052934204D059
:1047A00041F25501624802F01DFA6B68B3F5004F03
:1047B00018BF002B04D01BB1022B01D00A2B0CD147
:1047C000EB680F2B0FD8EA6869682068FFF742FB97
:1047D00050212068FFF766FB4CE741F2580154482E
:1047E00002F000FAECE741F25901514802F0FAF9FF
:1047F000E9E741F267014E4802F0F4F93FE641F281
:1048000068014B4802F0EEF93DE62368474A9342BF
:1048100018BFB3F1804F18D0A2F57C42934214D058
:1048200002F58062934210D002F5806293420CD070
:1048300002F57842934208D002F57052934204D0B8
:1048400041F273013A4802F0CDF96B68B3F5004FBD
:1048500018BF002B04D01BB1022B01D00A2B0CD1A6
:10486000EB680F2B0FD8EA6869682068FFF7F2FA47
:1048700040212068FFF716FBFCE641F276012C4848
:1048800002F0B0F9ECE741F27701294802F0AAF909
:10489000E9E72368254A934218BFB3F1804F18D047
:1048A000A2F57C42934214D002F58062934210D06C
:1048B00002F5806293420CD002F57842934208D010
:1048C00002F57052934204D041F28A01184802F076
:1048D00089F910212068FFF7E5FACBE62368134A2F
:1048E000934218BFB3F1804F18D0A2F57C42934297
:1048F00014D002F58062934210D002F58062934298
:104900000CD002F57842934208D002F570529342DF
:1049100004D041F29201064802F064F92021206897
:10492000FFF7C0FAA6E60220AAE600BF0000014099
:10493000988B000888FFCEFFF8B504460D46036843
:10494000554A934218BFB3F1804F20D0A2F57C4264
:1049500093421CD002F58062934218D002F5806227
:10496000934214D002F58062934210D002F5806227
:1049700093420CD002F57042934208D002F5705277
:10498000934204D040F2FC51444802F02BF92B68CA
:10499000B3F1100218BF0122002B08BF00225AB148
:1049A000202B09D0302B07D0402B05D0502B03D023
:1049B000602B01D0702B5BD1AB68802B18BF002B14
:1049C0005CD194F83C30012B64D0012384F83C3056
:1049D00023685E689F683049314A934218BF8B4212
:1049E00036D16B68B3F5801218BF0122002B08BFC7
:1049F00000224AB3B3F5001F26D0B3F5401F23D0E1
:104A0000B3F5800F20D0B3F5A00F1DD0B3F5C00FC4
:104A10001AD0B3F5E00F17D0B3F5000F14D0B3F5EB
:104A2000100F11D0B3F5200F0ED0B3F5300F0BD00F
:104A3000B3F5400F08D0B3F5500F05D0B3F5600FB4
:104A400002D0B3F5700F1FD126F470066B681E43B9
:104A500026F070062B681E4327F08007AB683B43A7
:104A60002268566022689360002084F83C00F8BDFC
:104A700040F2FD51094802F0B5F89DE740F2FE51C1
:104A8000064802F0AFF89CE740F20D61034802F0DF
:104A9000A9F8D9E70220EAE700000140D08B00081E
:104AA00000040140704770472DE9F04387B0044689
:104AB0004268A74B9A4200F2C280A368B3F1805FBC
:104AC00018BF002B03D0B3F5805F40F0BE80226892
:104AD000A04B9A4200F0BF80E368B3F5805F18BF37
:104AE000002B06D0B3F5405F03D0B3F5005F40F074
:104AF000C380226AB2F5006318BF0123002A08BFF1
:104B00000023002B40F0BE802269B2F5806318BFFD
:104B10000123002A08BF00231BB1B2F5C06F40F08B
:104B2000B780636933F00C0200D123B940F61F014E
:104B3000894802F057F8A269B2F5807318BF0123C3
:104B4000002A08BF002333B1B2F5007F03D0B2F5CD
:104B5000407F40F0A380E269B2F5004318BF012313
:104B6000002A08BF0023002B40F09E80636A0B2BB5
:104B700000F2A080A26A12F1604318BF0123002A4C
:104B800008BF0023002B40F09B80A36AB3F1005FB5
:104B900000F09C80A3682269134362691343E269B1
:104BA0001343A26A1343216808686C4A02401A43FF
:104BB0000A602268536823F44053E1680B43536052
:104BC000A2692168634B994201D0236A1A43A36A00
:104BD000B3F1005F00F0B6808868614B0340134377
:104BE0008B602268D36A23F00F03616A0B43D362A0
:104BF00023685C4A934200F0C5805B4A934200F010
:104C0000FE805A4A934200F01481594A934200F0C0
:104C10002A81584A934200F04081574A934200F05B
:104C20005381564A934200F07881554A934200F0EE
:104C30008B81484A934200F0A1818025B7E140F67C
:104C40001201454801F0CEFF37E740F61301424814
:104C500001F0C8FF3BE7E268B2F5005318BF01233B
:104C6000002A08BF0023002B3FF44EAF40F6160188
:104C7000394801F0B7FF47E740F61A01364801F01E
:104C8000B1FF36E740F61B01334801F0ABFF3BE7CD
:104C900040F61E01304801F0A5FF42E74FF40261E3
:104CA0002D4801F09FFF56E740F621012A4801F008
:104CB00099FF5BE740F62201274801F093FF59E78F
:104CC00040F62301244801F08DFF5EE7E36A13F10B
:104CD000604218BF0122002B08BF00225AB1B3F175
:104CE000804F08D0B3F1C04F05D0B3F1004F02D0D0
:104CF000B3F1204F20D1236B13F17E4218BF012264
:104D0000002B08BF0022002A3FF444AFB3F1806FAC
:104D10003FF440AFB3F1C06F3FF43CAFB3F1006F6D
:104D20003FF438AFB3F1206F3FF434AF40F62701C2
:104D3000094801F057FF2DE740F62601064801F02B
:104D400051FFD8E7E36A206B03431A4344E700BFEF
:104D500020BCBE00000C00580C8C0008F369FFCF8B
:104D6000FFF4FF11001001400044004000480040E3
:104D7000004C00400050004000140140007800400A
:104D8000007C00407C4A526D02F03802282A2AD862
:104D9000DFE812F00C012900290029002900290070
:104DA000290029002B0029002900290029002900B9
:104DB000290029002D0029002900290029002900A7
:104DC000290029002F002900290029002900290095
:104DD0002900290031002900290029002900290083
:104DE0002900290033008025E1E00425DFE040258B
:104DF000DDE00825DBE01025D9E02025D7E05E4A7C
:104E0000526D02F00702052A07D8DFE812F01E01F2
:104E100008000A000C000E0010008025C7E00425E1
:104E2000C5E04025C3E00825C1E01025BFE02025EE
:104E3000BDE0514A526D02F00702052A07D8DFE8AB
:104E400012F0060108000A000C000E001000802578
:104E5000ADE00425ABE04025A9E00825A7E010253A
:104E6000A5E02025A3E0444A526D02F00702052A7E
:104E700007D8DFE812F0EE0008000A000C000E0070
:104E80001000802593E0042591E040258FE008255F
:104E90008DE010258BE0202589E0374A526D02F025
:104EA0000702052A04D8DFE802F0D60507090B0D32
:104EB00080257CE004257AE0402578E0082576E02E
:104EC000102574E0202572E02B4A526D02F0380262
:104ED000282A16D8DFE802F0C11515151515151585
:104EE000171515151515151519151515151515156C
:104EF0001B151515151515151D1515151515151554
:104F00001F00802553E0042551E040254FE008258F
:104F10004DE010254BE0202549E0174A526D02F084
:104F20000702052A04D8DFE802F09A0507090B0DED
:104F300080253CE004253AE0402538E0082536E0AD
:104F4000102534E0202532E00B4A526D02F00702B2
:104F5000052A04D8DFE802F0850507090B0D802536
:104F600025E0042523E0402521E008251FE0102549
:104F70001DE020251BE000BF0044025802F50E3260
:104F8000926D02F00702052A04D8DFE802F06C05F2
:104F900007090B0D80250AE0042508E0402506E0FE
:104FA000082504E0102502E0202500E00125AA4A9A
:104FB00093425AD0E269B2F5004F00F09081402D43
:104FC00000F2F982DFE815F050026202F702F70200
:104FD0007402F702F702F702A402F702F702F702DF
:104FE000F702F702F702F702CE02F702F702F70222
:104FF000F702F702F702F702F702F702F702F702E9
:10500000F702F702F702F702DE02F702F702F702F1
:10501000F702F702F702F702F702F702F702F702C8
:10502000F702F702F702F702F702F702F702F702B8
:10503000F702F702F702F702F702F702F702F702A8
:10504000F702F702F702F70290020025AFE700250A
:10505000ADE70025ABE70025A9E70125A7E7002577
:10506000A5E70025A3E70225A1E7082D36D007D93B
:10507000202D3FD0402D2CD0102D0AD001206BE1E7
:10508000022D08D0042DF9D103A8FEF7FDFC049BE6
:1050900004E0724B05E0FEF7E1FC0346002B00F054
:1050A0008282666806EB46029A4200F27E82B3EB89
:1050B000063F00F27C82082D00F088801FD9202D49
:1050C00000F0F480402D62D0102D00F0D18001203E
:1050D00054E06846FEF7BEFD019BDFE7604B1B68AE
:1050E00013F0200F09D05E4B1868C0F3C1005D4B70
:1050F000C340D3E74FF40043D3E75A4BD1E7022D27
:1051000020D0042DE3D103A8FEF7BEFC0025626A7F
:10511000554B33F81220002304982946FBF7E0F89A
:105120000F0247EA10670602626850082B4616EB2A
:10513000000847F1000940464946FBF7D1F803460D
:1051400028461BE0FEF78AFC0025626A464B33F8CE
:10515000122000232946FBF7C3F80F0247EA106725
:105160000602626850082B4616EB000847F100095A
:1051700040464946FBF7B4F803462846A3F540717C
:105180003A4A914200F215822268D360E4E0684610
:10519000FEF760FD0025626A334B33F812200023CE
:1051A00001982946FBF79CF80F0247EA10670602B0
:1051B000626850082B4616EB000847F1000940468C
:1051C0004946FBF78DF803462846D7E7244B1B6872
:1051D00013F0200F22D0224B1968C1F3C101002522
:1051E000626A214B33F8122000231E48C84029462A
:1051F000FBF776F84FEA012949EA10694FEA0028DF
:10520000700832462B4618EB000649F1000730467D
:105210003946FBF765F803462846AFE7626A124B4A
:1052200033F8122000230F480021FBF759F84FEA0A
:10523000012949EA10694FEA002870080025324622
:105240002B4618EB000649F1000730463946FBF7BC
:1052500047F80346284691E7000C005800093D0036
:10526000004402580090D003108A0008FFFC0F0091
:10527000626A994B33F81220002398480021FBF70B
:105280002FF84FEA012949EA10694FEA002870080F
:10529000002532462B4618EB000649F10007304640
:1052A0003946FBF71DF80346284667E7626A8A4BD2
:1052B00033F812204FF40043B3FBF2F34FF0000930
:1052C0004FEA03287708002532462B4618EB0700E3
:1052D00049F10001FBF704F8034628464EE7402D4C
:1052E00000F2BF80DFE805F0213BBDBD4CBDBDBD78
:1052F00072BDBDBDBDBDBDBD9CBDBDBDBDBDBDBD4A
:10530000BDBDBDBDBDBDBDBDACBDBDBDBDBDBDBDDE
:10531000BDBDBDBDBDBDBDBDBDBDBDBDBDBDBDBDBD
:10532000BDBDBDBDBDBDBDBD5F00FDF7AFFB626ACC
:10533000694B33F81220B0FBF2F063685A0802EBB5
:105340004002B2FBF3F292B2002022F00F03C2F34C
:1053500042021A432368DA6007B0BDE8F083FDF724
:10536000ABFB626A5C4B33F81220B0FBF2F063686F
:105370005A0802EB4002B2FBF3F292B20020E4E7DB
:1053800003A8FEF781FB626A534B33F81230049A8C
:10539000B2FBF3F361684A0802EB4302B2FBF1F29D
:1053A00092B20020D1E76846FEF754FC626A4A4B8D
:1053B00033F81230019AB2FBF3F361684A0802EB4A
:1053C0004302B2FBF1F292B20020BEE7444B1B68ED
:1053D00013F0200F14D0424B1A68C2F3C102414BA4
:1053E000D340616A3C4A32F81120B3FBF2F36168A2
:1053F0004A0802EB4302B2FBF1F292B20020A4E7AA
:10540000626A354B33F81220364BB3FBF2F3616816
:105410004A0802EB4302B2FBF1F292B2002094E799
:10542000626A2D4B33F812302C4AB2FBF3F36168F9
:105430004A0802EB4302B2FBF1F292B2002084E789
:10544000626A254B33F812304FF40042B2FBF3F39B
:1054500061684A0802EB4302B2FBF1F292B200200B
:1054600073E70120002270E7FDF710FB626A1A4B18
:1054700033F81230B0FBF3F3626803EB5203B3FB73
:10548000F2F322689BB2D360002065E7FDF714FBBE
:10549000626A114B33F81230B0FBF3F3626803EB2E
:1054A0005203B3FBF2F322689BB2D360002053E7B0
:1054B00003A8FEF7E9FA626A074B33F81220049B4F
:1054C000B3FBF2F3626803EB5203B3FBF2F322681F
:1054D0009BB2D36000203FE7108A000800093D001E
:1054E000004402580090D0036846FEF7B3FB626A9E
:1054F000324B33F81220019BB3FBF2F3626803EBEB
:105500005203B3FBF2F322689BB2D360002023E77F
:105510002B4A126812F0200F14D0294A1168C1F3E7
:10552000C101284ACA40606A244931F81010B2FB10
:10553000F1F2616802EB5102B2FBF1F292B2DA6071
:10554000002009E7616A1D4A32F811101D4AB2FBBA
:10555000F1F2616802EB5102B2FBF1F292B2DA6051
:105560000020F9E6616A154A32F81110164AB2FBBA
:10557000F1F2616802EB5102B2FBF1F292B2DA6031
:105580000020E9E6616A0D4A32F811104FF400423A
:10559000B2FBF1F2616802EB5102B2FBF1F292B29E
:1055A000DA600020D8E60020D6E60120D4E601200B
:1055B000D2E60120D0E60120CEE600BF108A000826
:1055C000004402580090D00300093D0010B5044685
:1055D000436BFF2B00F2D680636B13F0010F11D0E9
:1055E000A26BB2F5003318BF0123002A08BF0023C5
:1055F000002B40F0CD802268536823F40033A16B68
:105600000B435360636B13F0020F11D0E26BB2F5E2
:10561000803318BF0123002A08BF0023002B40F06D
:10562000BD802268536823F48033E16B0B435360E1
:10563000636B13F0040F11D0226CB2F5802318BFF6
:105640000123002A08BF0023002B40F0AD80226810
:10565000536823F48023216C0B435360636B13F076
:10566000080F11D0626CB2F5004318BF0123002A65
:1056700008BF0023002B40F09D802268536823F46C
:105680000043616C0B435360636B13F0100F11D038
:10569000A26CB2F5805318BF0123002A08BF002373
:1056A000002B40F08D802268936823F48053A16C16
:1056B0000B439360636B13F0200F10D0E26CB2F5D4
:1056C000005318BF0123002A08BF0023002B7DD1FF
:1056D0002268936823F40053E16C0B439360636B7F
:1056E00013F0400F38D023685049514A8B4218BFFD
:1056F00093421CD002F58062934218D002F580627A
:10570000934214D002F58062934210D002F54442D5
:1057100093420CD0A2F51C42934208D002F580625D
:10572000934204D040F64A11424801F05BFA226DE0
:10573000B2F5801318BF0123002A08BF0023002BF5
:105740004AD12268536823F48013216D0B435360C0
:10575000236DB3F5801F45D0636B13F0800F10D01D
:10576000A26DB2F5002318BF0123002A08BF002351
:10577000002B54D12268536823F40023A16D0B43FE
:10578000536010BD40F61B112A4801F02BFA23E7A5
:105790004FF41261274801F025FA2CE740F6271153
:1057A000244801F01FFA3CE740F62E11214801F091
:1057B00019FA4CE740F635111E4801F013FA5CE780
:1057C00040F63C111B4801F00DFA6CE740F643111E
:1057D000184801F007FA7BE740F64B11154801F035
:1057E00001FAAEE7626DB2F5001318BF0123002A7B
:1057F00008BF00232BB1B2F5800F02D0B2F5C00F65
:1058000007D12268536823F4C003616D0B435360D2
:10581000A2E74FF41561074801F0E4F9F1E740F61B
:105820005811044801F0DEF9A4E700BF0010014060
:10583000004400400C8C00082DE9F04105460F465D
:1058400016469846069C2B68DB6937EA03030CBFB3
:1058500001230023B3421DD1B4F1FF3FF3D02CB19B
:10586000FAF7E2FEA0EB0800A042ECD92A68136820
:1058700023F4D07313602A68936823F001039360C4
:10588000202385F8793085F87A30002385F8783040
:10589000032000E00020BDE8F08130B583B004466D
:1058A0000023C367FAF7C0FE054623681B6813F0A0
:1058B000080F0ED123681B6813F0040F17D12023A3
:1058C00084F8793084F87A30002084F8780003B0C6
:1058D00030BD6FF07E430093034600224FF4001169
:1058E0002046FFF7A9FF0028E4D00320EFE76FF080
:1058F0007E4300932B4600224FF480012046FFF7A1
:105900009BFF0028DBD00320E1E70000002800F027
:10591000838010B504468369002B4CD003683F494F
:105920003F4A8B4218BF93421ED002F580629342D9
:105930001AD002F58062934216D002F5806293423B
:1059400012D002F5444293420ED0A2F51C4293427B
:105950000AD002F58062934206D0324A934203D0C5
:10596000F021314801F03EF994F87930002B49D00C
:10597000242384F879302268136823F0010313602C
:105980002046FFF791F8012814D0636B002B3FD11C
:105990002268536823F4904353602268936823F08D
:1059A0002A0393602268136843F0010313602046C2
:1059B000FFF773FF10BD03681849194A8B4218BFDF
:1059C0009342D1D002F580629342CDD002F580623D
:1059D0009342C9D002F580629342C5D002F5444299
:1059E0009342C1D0A2F51C429342BDD002F5806221
:1059F0009342B9D00B4A9342B6D0F5210A4801F040
:105A0000F1F8B1E784F87830204601F0ABFAAFE75F
:105A10002046FFF7DBFDBBE7012070470010014087
:105A200000440040000C00580C8C0008EFF3058087
:105A3000003018BF0120704710B582B00446002323
:105A40000193FFF7F3FF88B101A9204600F0AAF9FE
:105A5000012816D1019BB3B10D4B4FF080521A6053
:105A6000BFF34F8FBFF36F8F002008E000231A466B
:105A70001946204600F0D0F8012806D1002002B0D7
:105A800010BDFF20FBE70020F9E7FF20F7E700BF8C
:105A900004ED00E008B500F0CDFC012801D000F0D5
:105AA000B9FD08BD43684B609A688A609A68516086
:105AB00099600861036801330360704730B40D6872
:105AC000B5F1FF3F02D000F1080202E0026904E0F4
:105AD0001A4653681C68AC42FAD953684B60996007
