:020000040800F2
:1000000000000824DDB2000869AA000877AA0008E9
:1000100087AA00088DAA000893AA00080000000023
:10002000000000000000000000000000D19E000859
:1000300099AA000800000000719F0008A7AA000804
:100040002DB300082DB300082DB300082DB3000810
:100050002DB300082DB300082DB300082DB3000800
:100060002DB300082DB300082DB300082DB30008F0
:100070002DB300082DB300082DB300082DB30008E0
:100080002DB300082DB300082DB300082DB30008D0
:100090002DB300082DB300082DB300082DB30008C0
:1000A0002DB30008B5AA00082DB300082DB3000831
:1000B000E5AA00082DB300082DB300082DB30008F1
:1000C0002DB300082DB300082DB300082DB3000890
:1000D0002DB300082DB300082DB300082DB3000880
:1000E0002DB300082DB30008000000002DB3000858
:1000F0002DB300082DB300082DB300082DB3000860
:100100002DB300082DB300082DB300082DB300084F
:100110002DB300082DB300082DB300082DB300083F
:100120002DB300082DB300082DB300082DB300082F
:100130002DB30008F9AA00082DB300082DB300085C
:1001400000000000000000000000000000000000AF
:100150002DB300082DB300082DB300082DB30008FF
:100160002DB300082DB300082DB300082DB30008EF
:100170002DB300082DB300082DB3000800000000C7
:100180002DB300082DB300082DB300082DB30008CF
:100190002DB300082DB300082DB300082DB30008BF
:1001A0002DB300082DB300082DB300082DB30008AF
:1001B0002DB300082DB300082DB300082DB300089F
:1001C0002DB300082DB300082DB300082DB300088F
:1001D0002DB300082DB300082DB300080DAB0008A7
:1001E0002DB300082DB300082DB300082DB300086F
:1001F0002DB300082DB300082DB300082DB300085F
:100200002DB300082DB300082DB300082DB300084E
:100210002DB300082DB300082DB300082DB300083E
:100220002DB300082DB300082DB300080000000016
:100230002DB300082DB30008000000002DB3000806
:100240002DB300082DB300082DB300082DB300080E
:100250002DB300082DB300082DB300082DB30008FE
:100260002DB300082DB300082DB300082DB30008EE
:100270002DB300082DB300082DB3000800000000C6
:100280002DB30008000000002DB30008000000009E
:08029000000000002DB300087E
:1002A00010B5054C237833B9044B13B10448AFF3B0
:1002B00000800123237010BDE40100240000000031
:1002C000C0CC000808B5034B1BB103490348AFF38A
:1002D000008008BD00000000E8010024C0CC000838
:1002E00053B94AB9002908BF00281CBF4FF0FF319D
:1002F0004FF0FF3000F072B9ADF1080C6DE904CE9B
:1003000000F006F8DDF804E0DDE9022304B07047F0
:100310002DE9F047089E04468846002B4BD18A42BF
:10032000154667D9B2FA82F24AB1C2F1200701FA42
:1003300002F320FA07F7954047EA030894404FEA92
:10034000154E230CB8FBFEF71FFA85FC0EFB178831
:1003500043EA084307FB0CF1994209D9EB1807F16E
:10036000FF3080F01B81994240F21881023F2B44FC
:100370005B1AA4B2B3FBFEF00EFB103344EA034455
:1003800000FB0CFCA44509D92C1900F1FF3380F0C7
:100390000781A44540F2048102382C4440EA07401A
:1003A000A4EB0C0400271EB1D4400023C6E900438F
:1003B0003946BDE8F0878B4209D9002E00F0EB806A
:1003C0000027C6E9000138463946BDE8F087B3FA90
:1003D00083F7002F47D18B4202D3824200F2FA808A
:1003E000841A61EB030301209846002EE0D0C6E991
:1003F0000048DDE702B9FFDEB2FA82F2002A40F0DF
:100400008F80491B4FEA154E1FFA85F80127B1FB73
:10041000FEFC230C0EFB1C1143EA014308FB0CF10C
:10042000994207D9EB180CF1FF3002D2994200F241
:10043000CD808446591AA3B2B1FBFEF00EFB101416
:1004400043EA044408FB00F8A04507D92C1900F141
:10045000FF3302D2A04500F2B6801846A4EB080490
:1004600040EA0C409FE7C7F1200CBB4022FA0CFE8B
:100470004EEA030E01FA07F420FA0CF521FA0CF308
:100480004FEA1E482543B3FBF8F92C0C08FB19333F
:100490001FFA8EFA44EA034309FB0AF49C4202FA6B
:1004A00007F200FA07F10BD91EEB030309F1FF3045
:1004B00080F087809C4240F28480A9F10209734455
:1004C0001B1BADB2B3FBF8F008FB103345EA034445
:1004D00000FB0AFAA24508D91EEB040400F1FF3321
:1004E0006BD2A24569D90238744440EA0940A0FBA6
:1004F0000289A4EB0A044C45C2464B4654D351D062
:10050000002E69D0B1EB0A0564EB030404FA0CFC7D
:10051000FD40FC404CEA0505C6E90054002747E7CA
:10052000C2F1200320FA03F7954001FA02F021FA04
:1005300003F34FEA154E3843010CB3FBFEF71FFAE5
:1005400085F80EFB173341EA034107FB08F38B42A2
:1005500004FA02F407D9691807F1FF3C2FD28B4245
:100560002DD9023F2944CB1A81B2B3FBFEF00EFB1A
:10057000103341EA034100FB08F38B4207D96918A5
:1005800000F1FF3C17D28B4215D902382944C91A11
:1005900040EA07473BE73746304609E70746E7E6C4
:1005A0001846FBE64145ABD2B8EB020A69EB0E02F6
:1005B00001381346A4E76046E9E7184695E7674621
:1005C000D1E781467CE702382C4447E7ACF1020CC6
:1005D0002B442FE7384608E73746E9E6704700BF67
:1005E000034613F8012B002AFBD1181A0138704773
:1005F00080B500AF032000F0FDF800200AF0DAF922
:100600000346002B01D0012302E00AF083F9002306
:10061000184680BD80B400AF064B1B781A46064BC7
:100620001B681344044A136000BFBD465DF8047B99
:10063000704700BF040000240002002480B400AF13
:10064000034B1B681846BD465DF8047B704700BF2E
:100650000002002480B485B000AF78607B6803F0AE
:100660000703FB600B4BDB68BB60BA684FF6FF0308
:100670001340BB60FB681A02BB681A43064B134366
:10068000BB60044ABB68D36000BF1437BD465DF849
:10069000047B704700ED00E00000FA0580B400AF75
:1006A000044BDB681B0A03F007031846BD465DF8E0
:1006B000047B704700ED00E080B483B000AF0346D8
:1006C000FB80B7F90630002B0BDBFB8803F01F0221
:1006D0000749B7F906305B09012000FA02F241F838
:1006E000232000BF0C37BD465DF8047B704700BF78
:1006F00000E100E080B483B000AF03463960FB80C6
:10070000B7F90630002B0ADB3B68DAB20C49B7F9BF
:1007100006301201D2B20B4483F800230AE03B6892
:10072000DAB20849FB8803F00F03043B1201D2B28E
:100730000B441A7600BF0C37BD465DF8047B70474A
:1007400000E100E000ED00E080B489B000AFF860A7
:10075000B9607A60FB6803F00703FB61FB69C3F1D2
:100760000703042B28BF0423BB61FB690433062B5A
:1007700002D9FB69033B00E000237B614FF0FF32AD
:10078000BB6902FA03F3DA43BB681A407B699A40FB
:100790004FF0FF317B6901FA03F3D9437B680B40CB
:1007A000134318462437BD465DF8047B70470000AC
:1007B00080B582B000AF78607B68013BB3F1807F89
:1007C00001D301230FE00A4A7B68013B53600F21EC
:1007D0004FF0FF30FFF78EFF054B00229A60044B6D
:1007E00007221A60002318460837BD4680BD00BFA7
:1007F00010E000E080B582B000AF78607B68072B26
:100800000FD07B68062B0CD07B68052B09D07B684A
:10081000042B06D07B68032B03D0A221044809F0E7
:1008200082FF7868FFF716FF00BF0837BD4680BD1E
:10083000F0CC000880B586B000AF0346B9607A609E
:10084000FB817B680F2B03D9BA210E4809F06BFF9F
:10085000BB680F2B03D9BB210A4809F064FFFFF7DF
:100860001DFF78617A68B9687869FFF76DFF024605
:10087000B7F90E3011461846FFF73CFF00BF183796
:10088000BD4680BDF0CC000880B582B000AF034605
:10089000FB80B7F90630002B03DACE21054809F0BA
:1008A00042FFB7F906301846FFF706FF00BF0837CA
:1008B000BD4680BDF0CC000880B582B000AF786046
:1008C0007868FFF775FF034618460837BD4680BDB8
:1008D00080B400AFBFF35F8F064B5B6A054A23F419
:1008E00080335362044B00225A6000BFBD465DF85E
:1008F000047B704700ED00E090ED00E080B483B031
:1009000000AF78600A4A7B6843F001035360094BEB
:100910005B6A084A43F480335362BFF34F8FBFF3DF
:100920006F8F00BF0C37BD465DF8047B704700BF7A
:1009300090ED00E000ED00E080B582B000AF78609F
:100940007B685B78002B40D07B685B78012B3CD0C8
:100950007B685B78022B38D07B685B78032B34D0C4
:100960007B685B78042B30D07B685B78052B2CD0C0
:100970007B685B78062B28D07B685B78072B24D0BC
:100980007B685B78082B20D07B685B78092B1CD0B8
:100990007B685B780A2B18D07B685B780B2B14D0B4
:1009A0007B685B780C2B10D07B685B780D2B0CD0B0
:1009B0007B685B780E2B08D07B685B780F2B04D0AC
:1009C00040F23D11964809F0AEFE7B681B78012B82
:1009D00008D07B681B78002B04D04FF49F7190489F
:1009E00009F0A1FE7B685A788E4B9A607B681B7871
:1009F000002B00F00A817B681B7B002B08D07B68F2
:100A00001B7B012B04D04FF4A371854809F08BFEAA
:100A10007B68DB7A002B18D07B68DB7A012B14D043
:100A20007B68DB7A022B10D07B68DB7A032B0CD03F
:100A30007B68DB7A052B08D07B68DB7A062B04D039
:100A400040F24711764809F06EFE7B689B7A002BD6
:100A50000CD07B689B7A012B08D07B689B7A022B99
:100A600004D04FF4A4716E4809F05DFE7B685B7B97
:100A7000012B08D07B685B7B002B04D040F249112E
:100A8000674809F050FE7B689B7B012B08D07B6890
:100A90009B7B002B04D04FF4A571614809F043FE05
:100AA0007B68DB7B012B08D07B68DB7B002B04D0D1
:100AB00040F24B115A4809F036FE7B685B7AFF2BF7
:100AC00004D14FF4A671564809F02DFE7B681B7ABD
:100AD000042B70D07B681B7A052B6CD07B681B7A4B
:100AE000062B68D07B681B7A072B64D07B681B7A47
:100AF000082B60D07B681B7A092B5CD07B681B7A43
:100B00000A2B58D07B681B7A0B2B54D07B681B7A3E
:100B10000C2B50D07B681B7A0D2B4CD07B681B7A3A
:100B20000E2B48D07B681B7A0F2B44D07B681B7A36
:100B3000102B40D07B681B7A112B3CD07B681B7A32
:100B4000122B38D07B681B7A132B34D07B681B7A2E
:100B5000142B30D07B681B7A152B2CD07B681B7A2A
:100B6000162B28D07B681B7A172B24D07B681B7A26
:100B7000182B20D07B681B7A192B1CD07B681B7A22
:100B80001A2B18D07B681B7A1B2B14D07B681B7A1E
:100B90001C2B10D07B681B7A1D2B0CD07B681B7A1A
:100BA0001E2B08D07B681B7A1F2B04D040F24D11FE
:100BB0001B4809F0B8FD1B4A7B685B68D3607B6803
:100BC0001B7B1A077B68DB7A1B061A437B689B7AC0
:100BD000DB041A437B685B7B9B041A437B689B7B2B
:100BE0005B041A437B68DB7B1B041A437B685B7ADC
:100BF0001B021A437B681B7A5B0013437A681278E6
:100C00001146084A0B43136105E0064B0022DA60E7
:100C1000044B00221A6100BF0837BD4680BD00BFEB
:100C2000F0CC000890ED00E080B582B000AF7860B5
:100C30007B68042B07D07B68002B04D040F2D711CF
:100C40000B4809F070FD7B68042B06D1094B1B682B
:100C5000084A43F00403136005E0064B1B68054A8D
:100C600023F00403136000BF0837BD4680BD00BFFA
:100C7000F0CC000810E000E080B489B000AF7860EC
:100C80007B682C33BB60BB681B69FB61BB68FA697E
:100C900053F82230BB6100237B6100233B610023BA
:100CA000FB60BB689B69002B6BD00023C3E07B69B2
:100CB00001337B61BB69DB6803F08053002B36D0C6
:100CC0003B6901333B613B69012B01D1FB69FB604F
:100CD000FB690133FB61FB69032B02D9FB69043B10
:100CE000FB61BB68FA6953F82230BB61BB69DB6802
:100CF000002B11DBBB69DB6803F08043002B0BD0BA
:100D0000BB680122DA61FB690133FB61FB69032BDC
:100D100002D9FB69043BFB61BB68FA691A61BB68D5
:100D2000FA685A61BB683A699A61012383E0BB693A
:100D3000DB6803F00053002B12D0FB69FB6001233A
:100D40003B61FB690133FB61FB69032B02D9FB6942
:100D5000043BFB61BB68FA6953F82230BB6110E0C9
:100D60003B6901333B61FB690133FB61FB69032B89
:100D700002D9FB69043BFB61BB68FA6953F8223076
:100D8000BB61BB69DB68002B02DB7B69032B8ED95F
:100D90003B69002B4BD0FB68FB61BB68FA6953F8D9
:100DA0002230BB6100237B613DE0BB691A69BB69EE
:100DB0001A60BB6900221A7300225A7300229A73C8
:100DC000002242F00102DA73BB695B69002B09D093
:100DD000BB695A69BB699A60BB69DB6843F0007202
:100DE000BB69DA60BB69DB6843F00042BB69DA606B
:100DF000BB681B6A002B05D0BB69DB6843F08042EF
:100E0000BB69DA60FB690133FB61FB69032B02D923
:100E1000FB69043BFB61BB68FA6953F82230BB6194
:100E20007B6901337B617A693B699A42BDD3BB68B8
:100E300000229A61002318462437BD465DF8047BE2
:100E40007047000080B582B000AF78607B681B6897
:100E500003F58B531B6803F04003402B19D17B68CB
:100E60001A6841F2341313441B6803F04003402B0B
:100E70000FD17868FFF700FF0346012B02D1786895
:100E800009F0CCF87B681B6803F58B5348F24002ED
:100E90001A607B681B6803F58B531B6803F0010322
:100EA000012B13D17B681A6841F2341313441B6879
:100EB00003F00103012B09D1786800F0C3F87B68C7
:100EC0001B6803F58B5348F201021A607B681B68AC
:100ED00003F58B531B6803F48043B3F5804F59D15E
:100EE0007B681A6841F2341313441B6803F480438F
:100EF000B3F5804F4ED17B685B6D43F008027B6891
:100F00005A657B681B6803F58B531B6803F4805399
:100F1000B3F5805F24D17B681B6803F58B531A6897
:100F200041F20213134041F2021293420CBF01231B
:100F30000023DBB21A467B689A657B681A6841F227
:100F4000341313441B687A68116823F4404241F259
:100F500034130B441A607B68E02283F8512016E0BA
:100F60007B681B6803F58B531B6803F4CD43B3F513
:100F7000CD4F0CBF01230023DBB21A467B689A6574
:100F80007B681B6803F58B534FF4CD421A60786879
:100F900000F062F87B681B68D3F8B03003F4C043FC
:100FA000B3F5C04F0FD17B681B68D3F8B8207B68BE
:100FB000DA657B68E02283F85120786800F056F803
:100FC0007B680022DA657B681B68D3F8B03003F0D9
:100FD0001003102B0DD17B681B68D3F8C03003F0D1
:100FE00060027B681A66786800F04AF87B68002225
:100FF0001A667B681B68D3F8B03003F02003202BFF
:101000000DD17B681B68D3F8C03003F00F027B68FA
:101010005A66786800F03EF87B6800225A66084BF2
:101020009B6A03F48003002B06D0054B4FF480022B
:101030009A62786800F038F800BF0837BD4680BD76
:101040008000005880B483B000AF786000BF0C37D8
:10105000BD465DF8047B704780B483B000AF786014
:1010600000BF0C37BD465DF8047B704780B483B089
:1010700000AF786000BF0C37BD465DF8047B704759
:1010800080B483B000AF786000BF0C37BD465DF818
:10109000047B704780B483B000AF786000BF0C372A
:1010A000BD465DF8047B704780B483B000AF7860C4
:1010B00000BF0C37BD465DF8047B704780B588B033
:1010C00000AF786039600023FB6100237B6100235F
:1010D0003B610023BB61444BFB607B68434A934206
:1010E0002BD07B68424A934227D07B68414A934287
:1010F00023D07B68404A93421FD07B683F4A93428B
:101100001BD07B683E4A934217D07B683D4A93428E
:1011100013D07B683C4A93420FD07B683B4A934292
:101120000BD07B683A4A934207D07B68394A934296
:1011300003D0C421384809F0F6FA3B681B689BB21B
:10114000002B03D1C521344809F0EDFA3B685B68F8
:10115000002B35D03B685B68012B31D03B685B6866
:10116000112B2DD03B685B68022B29D03B685B6854
:10117000122B25D03B685B68284A934220D03B68FD
:101180005B68274A93421BD03B685B68254A9342C1
:1011900016D03B685B68244A934211D03B685B6879
:1011A000224A93420CD03B685B68214A934207D0A5
:1011B0003B685B68032B03D0C621174809F0B3FADC
:1011C0003B689B68002B0BD03B689B68012B07D0CA
:1011D0003B689B68022B03D0C7210F4809F0A3FA94
:1011E0000023FB61D9E100BF8000005800000258D5
:1011F0000004025800080258000C0258001002585F
:101200000014025800180258001C0258002002580E
:10121000002402580028025844CD00080000111193
:1012200000002111000031110000121100002211F4
:10123000000032110122FB6902FA03F37B613B6873
:101240001B687A6913403B613A697B699A4240F0B6
:10125000A1813B685B68022B03D03B685B68122B63
:101260002BD13B681B690F2B03D9D821884809F083
:101270005AFAFB69DA087B68083253F82230BB61FE
:10128000FB6903F007039B000F2202FA03F3DB4321
:10129000BA691340BB613B681A69FB6903F0070335
:1012A0009B0002FA03F3BA691343BB61FB69DA08D6
:1012B0007B680832B96943F822107B681B68BB6100
:1012C000FB695B00032202FA03F3DB43BA691340B4
:1012D000BB613B685B6803F00302FB695B0002FAD9
:1012E00003F3BA691343BB617B68BA691A603B6850
:1012F0005B68012B0BD03B685B68022B07D03B6817
:101300005B68112B03D03B685B68122B44D13B68B0
:10131000DB68002B0FD03B68DB68012B0BD03B68F0
:10132000DB68022B07D03B68DB68032B03D0EC2182
:10133000574809F0F8F97B689B68BB61FB695B0063
:10134000032202FA03F3DB43BA691340BB613B6833
:10135000DA68FB695B0002FA03F3BA691343BB6105
:101360007B68BA699A607B685B68BB610122FB6934
:1013700002FA03F3DB43BA691340BB613B685B6865
:101380001B0903F00102FB6902FA03F3BA69134374
:10139000BB617B68BA695A607B68DB68BB61FB69CB
:1013A0005B00032202FA03F3DB43BA691340BB611B
:1013B0003B689A68FB695B0002FA03F3BA6913435E
:1013C000BB617B68BA69DA603B685B6803F0805395
:1013D000002B00F0DF802F4BD3F8F4302D4A43F080
:1013E0000203C2F8F4302B4BD3F8F43003F00203BD
:1013F000BB60BB68284AFB699B08023352F8233064
:10140000BB61FB6903F003039B000F2202FA03F3A5
:10141000DB43BA691340BB617B68204A934251D0D9
:101420007B681F4A934231D07B681E4A93422BD07F
:101430007B681D4A934225D07B681C4A93421FD08B
:101440007B681B4A934219D07B681A4A934213D097
:101450007B68194A93420DD07B68184A934207D0A3
:101460007B68174A934201D109232CE00A232AE022
:10147000082328E0072326E0062324E0052322E0B2
:10148000042320E003231EE002231CE001231AE0D2
:1014900044CD0008004402580004005800000258DF
:1014A0000004025800080258000C025800100258AC
:1014B0000014025800180258001C0258002002585C
:1014C000002402580023FA6902F0030292009340BC
:1014D000BA691343BB613549FB699B080233BA699A
:1014E00041F82320FB681B68BB613B69DB43BA6999
:1014F0001340BB613B685B6803F48033002B03D06F
:10150000BA693B691343BB61FB68BA691A60FB683F
:101510005B68BB613B69DB43BA691340BB613B68F5
:101520005B6803F40033002B03D0BA693B691343B3
:10153000BB61FB68BA695A604FF0B0431B68BB617E
:101540003B69DB43BA691340BB613B685B6803F4EA
:101550008013002B03D0BA693B691343BB614FF082
:10156000B042BB6913604FF0B0435B68BB613B693D
:10157000DB43BA691340BB613B685B6803F400134B
:10158000002B03D0BA693B691343BB614FF0B042F3
:10159000BB695360FB690133FB61FB690F2B7FF66D
:1015A00049AE00BF2037BD4680BD00BF00040058D3
:1015B00080B584B000AF78600B467B807B88002BC1
:1015C00004D14FF4C871094809F0ADF87B681A6975
:1015D0007B881340002B02D00123FB7301E0002322
:1015E000FB73FB7B18461037BD4680BD44CD000819
:1015F00080B582B000AF78600B467B8013467B706D
:101600007B88002B04D14FF4D8710E4809F08BF879
:101610007B78002B07D07B78012B04D040F2B111EE
:10162000084809F080F87B78002B03D07B687A8823
:101630001A8302E07B687A885A8300BF0837BD4668
:1016400080BD00BF44CD000880B582B000AF786097
:101650000B467B807B88002B04D14FF4E371064856
:1016600009F061F87B685A697B885A407B685A6147
:1016700000BF0837BD4680BD44CD000880B586B0A8
:1016800000AF78607B68002B01D1012310E17B68FB
:101690001B68894A934204D04FF4EA71874809F0E5
:1016A00042F87B685A68864B1340002B04D040F206
:1016B000D511824809F037F87B68022283F8C120EF
:1016C0007B680022C3F8C4207B680022C3F8C820CE
:1016D0007B680022C3F8CC207B680022C3F8D020AE
:1016E0007B680022C3F8D4207B680022C3F8D8208E
:1016F0007B689B6803F00103002B5CD07B681B694F
:10170000002B13D07B681B69B3F5804F0ED07B682C
:101710001B69B3F5004F09D07B681B69B3F5404FD7
:1017200004D04FF4F371654808F0FDFF7B685B69F6
:10173000002B0ED07B685B69B3F5005F09D07B6836
:101740005B69B3F5405F04D040F2E7115B4808F0F5
:10175000EAFF7B681B68584A93420ED1594BD3F875
:10176000F030584A43F00053C2F8F030554BD3F8EC
:10177000F03003F00053FB60FB687B681B681B685C
:101780003B613B6923F440433B617B681B6903F485
:1017900040433A6913433B613B6923F440533B6147
:1017A0007B685B6903F440533A6913433B617B6890
:1017B0001B683A691A60786808F0A4FD7B689B682A
:1017C00003F00203002B25D07B68DB68002B0ED0D2
:1017D0007B68DB68B3F5007F09D07B68DB68B3F515
:1017E000407F04D040F20721344808F09CFF7B681A
:1017F0001B681B683B613B6923F440733B617B685A
:10180000DB6803F440733A6913433B617B681B68F0
:101810003A691A607B68012283F8C1207B68002244
:1018200083F8C0200023FB753EE0FA7D79681346FB
:10183000DB009B1A9B000B44183300221A60FA7DD0
:1018400079681346DB009B1A9B000B441C33002273
:101850001A60FA7D79681346DB009B1A9B000B44E3
:10186000203300221A60FA7D79681346DB009B1A48
:101870009B000B44243300221A60FA7D79681346DA
:10188000DB009B1A9B000B44283300221A60FA7D70
:1018900079681346DB009B1A9B000B44303300220F
:1018A0001A60FB7D0133FB75FB7D052BBDD9002341
:1018B00018461837BD4680BD0074014098CD000819
:1018C000C0FFFCFF0044025880B584B000AFF86050
:1018D000B9607A60BB68052B13D0BB68002B10D0B1
:1018E000BB68012B0DD0BB68022B0AD0BB68032B51
:1018F00007D0BB68042B04D040F27A212D4808F0B1
:1019000012FF7B689B68002B20D07B689B68012BB3
:101910001CD07B689B68022B18D07B689B68032BCC
:1019200014D07B689B68042B10D07B689B68052BC8
:101930000CD07B689B68062B08D07B689B68072BC4
:1019400004D040F27B211B4808F0EDFE7B68DB6889
:10195000082B0CD07B68DB68002B08D07B68DB6829
:10196000102B04D04FF41F71124808F0DCFEFB6806
:1019700093F8C130DBB2022B01D1022315E0FB68E2
:10198000022283F8C120BB68052B04D17968F8686E
:1019900000F01FFB04E07A68B968F86800F048FBC3
:1019A000FB68012283F8C120002318461037BD468A
:1019B00080BD00BF98CD000880B584B000AFF8604E
:1019C000B9607A60BB68052B13D0BB68002B10D0C0
:1019D000BB68012B0DD0BB68022B0AD0BB68032B60
:1019E00007D0BB68042B04D04FF463615A4808F059
:1019F0009AFE7B685B69002B08D07B685B69202BB3
:101A000004D040F63361544808F08DFE7B689B6932
:101A1000002B09D07B689B69B3F5006F04D040F6BA
:101A200034614D4808F07FFE7B68DB69002B09D0EC
:101A30007B68DB69B3F5806F04D040F635614648BA
:101A400008F071FE7B681B6A002B13D07B681B6A51
:101A5000B3F1007F0ED07B681B6AB3F1806F09D0B1
:101A60007B681B6AB3F1C06F04D040F636613A4818
:101A700008F059FE7B685B6A002B09D07B685B6AC3
:101A8000B3F1006F04D040F63761334808F04BFEE5
:101A90007B68DB6A002B09D07B68DB6AB3F5803F8B
:101AA00004D040F638612C4808F03DFE7B681B6B83
:101AB000002B09D07B681B6BB3F1005F04D040F6AC
:101AC0003961254808F02FFEFB6893F8C130DBB27E
:101AD000022B01D102236AE1FB6893F8C030012B8D
:101AE00001D1022363E1FB68012283F8C020FB6877
:101AF000022283F8C120BB68052B2FD17B689B6A2B
:101B0000002B0ED07B689B6AB3F1805F09D07B68A5
:101B10009B6AB3F1005F04D040F648610E4808F0BC
:101B200002FE7B681B6823F07F03002B04D040F685
:101B30004961094808F0F7FD7B685B6823F4FE0300
:101B4000002B04D040F64A61034808F0ECFD7968A8
:101B5000F86800F0ADFAE6E098CD00087B689B6A73
:101B6000002B2CD07B689B6AB3F1805F27D07B6809
:101B70009B6AB3F1005F22D07B689B6AB3F1405F40
:101B80001DD07B689B6AB3F1804F18D07B689B6A3D
:101B9000B3F1A04F13D07B689B6AB3F1C04F0ED056
:101BA0007B689B6AB3F1E04F09D07B689B6AB3F115
:101BB000004F04D040F652617F4808F0B4FD7B68C6
:101BC0001A687E4B1340002B04D040F653617A48CC
:101BD00008F0A9FD7B685A68794B1340002B04D0AC
:101BE00040F65461744808F09EFD7B685B6B002BE7
:101BF00008D07B685B6B402B04D040F655616E4883
:101C000008F091FD7B689B6B23F01F03002B04D031
:101C100040F65661684808F086FD7B68DB6B002B58
:101C200009D07B68DB6BB3F1004F04D040F65761FD
:101C3000614808F078FD7B685B6B002B08D17B68FE
:101C40001B6C002B11D07B681B6CB3F5807F0CD014
:101C50007B685B6B402B03D17B681B6C002B04D033
:101C600040F65961544808F05EFD7B685B6C002BC0
:101C700030D07B685B6CB3F5007F2BD07B685B6CEE
:101C8000B3F5C06F26D07B685B6CB3F5206F21D0B5
:101C90007B685B6CB3F5905F1CD07B685B6CB3F5C5
:101CA000B05F17D07B685B6CB3F5D05F12D07B68F8
:101CB0005B6B402B09D17B685B6CB3F5606F09D01F
:101CC0007B685B6CB3F5F05F04D040F65B613A482B
:101CD00008F029FD7B689B6C23F0FC73002B04D07B
:101CE00040F65C61344808F01EFD7B68DA6C354BC9
:101CF0001340002B04D040F65D612F4808F013FD1F
:101D00007B681B6D002B09D07B681B6DB3F5802FA2
:101D100004D040F65E61284808F005FD7A68B9688D
:101D2000F86800F02BFA7B681968F868BA681346FF
:101D3000DB009B1A9B000344203319607B685968C1
:101D4000F868BA681346DB009B1A9B0003442433EF
:101D500019607B689968F868BA681346DB009B1ABB
:101D60009B000344283319607B68D968F868BA6817
:101D70001346DB009B1A9B0003442C3319607B68DD
:101D80001969F868BA681346DB009B1A9B00034484
:101D900030331960B968F86800F036FBFB6801223F
:101DA00083F8C120FB68002283F8C0200023184676
:101DB0001037BD4680BD00BF98CD00082080FFFFD2
:101DC000FFFF20800100008080B582B000AF786006
:101DD00039603B68FF2B03D1786800F075FB0AE09F
:101DE0003B68052B03D1786800F006FC03E03968F6
:101DF000786800F0BDFC00BF0837BD4680BD80B4E8
:101E000083B000AF786000BF0C37BD465DF8047B3F
:101E1000704780B483B000AF786000BF0C37BD4618
:101E20005DF8047B704780B483B000AF786000BF7A
:101E30000C37BD465DF8047B704780B483B000AFBB
:101E4000786000BF0C37BD465DF8047B704780B4F6
:101E500083B000AF786000BF0C37BD465DF8047BEF
:101E6000704780B483B000AF786000BF0C37BD46C8
:101E70005DF8047B704780B483B000AF786000BF2A
:101E80000C37BD465DF8047B704780B483B000AF6B
:101E9000786000BF0C37BD465DF8047B704780B4A6
:101EA00083B000AF7860396000BF0C37BD465DF885
:101EB000047B704780B483B000AF7860396000BFA6
:101EC0000C37BD465DF8047B704780B483B000AF2B
:101ED0007860396000BF0C37BD465DF8047B704701
:101EE00080B483B000AF7860396000BF0C37BD4666
:101EF0005DF8047B704780B483B000AF78603960D0
:101F000000BF0C37BD465DF8047B704780B483B0DA
:101F100000AF7860396000BF0C37BD465DF8047BC8
:101F2000704780B483B000AF7860396000BF0C3771
:101F3000BD465DF8047B704780B483B000AF786025
:101F4000396000BF0C37BD465DF8047B704780B434
:101F500083B000AF7860396000BF0C37BD465DF8D4
:101F6000047B704780B483B000AF7860396000BFF5
:101F70000C37BD465DF8047B704780B483B000AF7A
:101F80007860396000BF0C37BD465DF8047B704750
:101F900080B483B000AF7860396000BF0C37BD46B5
:101FA0005DF8047B704780B483B000AF786039601F
:101FB00000BF0C37BD465DF8047B704780B483B02A
:101FC00000AF7860396000BF0C37BD465DF8047B18
:101FD000704780B485B000AF786039607B681B685B
:101FE0001B68FB60FB6823F00703FB603B689B6892
:101FF000FA681343FB60FB6823F01803FB603B683F
:10200000DB68FA681343FB607B681B68FA681A6038
:102010007B681B683A6812685A617B681B683A687B
:1020200052689A6100BF1437BD465DF8047B704763
:1020300080B487B000AFF860B9607A60FB681A6856
:10204000BB680133DB0113441B687B617B6923F0B0
:1020500007037B617B689B687A6913437B617B69BB
:1020600023F018037B617B68DB687A6913437B612B
:10207000FB681A68BB680133DB0113447A691A6094
:10208000FB6819687B681A68BB68DB010B449433F2
:102090001A60FB6819687B685A68BB68DB010B44EF
:1020A00098331A6000BF1C37BD465DF8047B70474B
:1020B00080B485B000AF786039607B681B681B68AE
:1020C000FB607B681B68D3F8A033BB60FB6823F020
:1020D0002003FB603B685B69FA681343FB60FB68A5
:1020E00023F40063FB603B689B69FA681343FB6061
:1020F000FB6823F48063FB603B68DB69FA68134389
:10210000FB60FB6823F0C063FB603B681B6AFA68F6
:102110001343FB60FB6823F00063FB603B685B6A72
:10212000FA681343FB60FB6823F04043FB603B68A5
:102130009B6A9B00FA681343FB60FB6823F0005323
:10214000FB603B681B6BFA681343FB60BB6823F4BE
:102150008033BB603B68DB6ABA681343BB607B6853
:102160001B68FA681A607B681B68BA68C3F8A0230A
:1021700000BF1437BD465DF8047B704780B48BB058
:1021800000AFF860B9607A60FB681A68BB68013319
:10219000DB0113441B68FA68116823F07042BB68C6
:1021A0000133DB010B441A60FB681A68BB6801331A
:1021B000DB0113441B687B62FB681A68BB68DB01A8
:1021C0001344E8331B68BB61FB681A68BB68DB011A
:1021D0001344E4331B683B62FB681A68BB68DB018D
:1021E0001344D4331B687B61FB681B68D3F8A033AE
:1021F000FB617B6A23F020037B627B685B697A6A00
:1022000013437B627B6A23F400637B627B689B6978
:102210007A6A13437B627B6A23F480637B627B6808
:10222000DB697A6A13437B627B6A23F0C0637B625B
:102230007B681B6A7A6A13437B627B6A23F00063C4
:102240007B627B685B6A7A6A13437B627B6A23F0FA
:1022500070437B627B689B6A7A6A13437B627B6A0A
:1022600023F400337B627B681B6BB3F1005F03D107
:102270007B6A43F400337B627B6A23F040037B621A
:102280007B685B6B7A6A13437B627B6A23F48023EF
:102290007B627B681B6D7A6A13437B627B6A23F0E7
:1022A000FC737B627B689B6C7A6A13437B62BB69BD
:1022B00023F01F03BB617B689B6B03F01F03BA69AC
:1022C0001343BB61BB6923F00043BB617B68DB6BDD
:1022D000BA691343BB617B685B6B002B08D13B6A17
:1022E00023F480733B627B681B6C3A6A13433B6246
:1022F0007B685B6CB3F5606F04D07B685B6CB3F597
:10230000F05F03D17B685B6B402B08D13B6A23F401
:10231000F0533B627B685B6C3A6A13433B627B68B9
:10232000DB6C7B61BB68042B43D801A252F823F01D
:10233000452300085B230008712300088723000859
:102340009D230008FB6923F40033FB617B68DB6A93
:102350005B00FA691343FB612BE0FB6923F48023E4
:10236000FB617B68DB6A9B00FA691343FB6120E039
:10237000FB6923F40023FB617B68DB6ADB00FA69FD
:102380001343FB6115E0FB6923F48013FB617B6859
:10239000DB6A1B01FA691343FB610AE0FB6923F462
:1023A0000013FB617B68DB6A5B01FA691343FB6125
:1023B00000BFFB681A68BB680133DB0113447A6A0B
:1023C0001A60FB681A68BB68DB011344E833BA691A
:1023D0001A60FB681A68BB68DB011344E4333A6A8D
:1023E0001A60FB681A68BB68DB011344D4337A694E
:1023F0001A60FB681B68FA69C3F8A02300BF2C377A
:10240000BD465DF8047B704780B483B000AF786050
:1024100039603B68052B51D801A252F823F000BF68
:102420004F240008652400087B240008912400083C
:10243000A7240008392400087B681B68D3F884238C
:102440007B681B6842F00102C3F8842336E07B6896
:102450001B68D3F884237B681B6842F00202C3F830
:1024600084232BE07B681B68D3F884237B681B687C
:1024700042F00402C3F8842320E07B681B68D3F891
:1024800084237B681B6842F00802C3F8842315E0AC
:102490007B681B68D3F884237B681B6842F01002BA
:1024A000C3F884230AE07B681B68D3F884237B6825
:1024B0001B6842F02002C3F8842300BF00BF0C3722
:1024C000BD465DF8047B704780B582B000AF786090
:1024D0007B681B68D3F8883303F00103012B0FD10D
:1024E0007B681B68D3F8903303F00103012B07D1FD
:1024F0007B681B680122C3F88C237868FFF77FFC98
:102500007B681B68D3F8883303F00203022B0FD1DA
:102510007B681B68D3F8903303F00203022B07D1CA
:102520007B681B680222C3F88C237868FFF771FC74
:102530007B681B68D3F8883303F00403042B0FD1A6
:102540007B681B68D3F8903303F00403042B07D196
:102550007B681B680422C3F88C237868FFF763FC50
:102560007B681B68D3F8883303F00803082B0FD16E
:102570007B681B68D3F8903303F00803082B07D15E
:102580007B681B680822C3F88C237868FFF755FC2A
:102590007B681B68D3F8883303F01003102B0FD12E
:1025A0007B681B68D3F8903303F01003102B07D11E
:1025B0007B681B681022C3F88C237868FFF747FC00
:1025C0007B681B68D3F8883303F02003202B0FD1DE
:1025D0007B681B68D3F8903303F02003202B07D1CE
:1025E0007B681B682022C3F88C237868FFF739FCCE
:1025F00000BF0837BD4680BD80B582B000AF7860AF
:102600007B681B68D3F8883303F40033B3F5003FCD
:1026100011D17B681B68D3F8903303F40033B3F512
:10262000003F08D17B681B684FF40032C3F88C234D
:102630007868FFF720FC7B681B685B6803F0010388
:10264000012B0ED17B681B68DB6803F00103012BB3
:1026500007D17B681B6801229A6005217868FFF723
:1026600034FC7B681B685B6803F00203022B0ED10D
:102670007B681B68DB6803F00203022B07D17B68D1
:102680001B6802229A6005217868FFF729FC7B68A5
:102690001B685B6803F00403042B0ED17B681B6886
:1026A000DB6803F00403042B07D17B681B6804225A
:1026B0009A6005217868FFF71EFC7B681B685B68E1
:1026C00003F00803082B0ED17B681B68DB6803F05E
:1026D0000803082B07D17B681B6808229A60052134
:1026E0007868FFF713FC7B681B685B6803F01003D6
:1026F000102B0ED17B681B68DB6803F01003102BD6
:1027000007D17B681B6810229A6005217868FFF763
:10271000D1FB7B681B685B6803F02003202B0DD185
:102720007B681B68DB6803F02003202B06D17B68E5
:102730001B6820229A607868FFF7A7FB7B681B68FC
:102740005B6803F04003402B0ED17B681B68DB689D
:1027500003F04003402B07D17B681B6840229A603E
:1027600005217868FFF79BFB00BF0837BD4680BD99
:1027700080B582B000AF786039607B681A683B68CA
:102780000133DB01134404331B6803F00103012B05
:1027900016D17B681A683B68DB0113448C331B68D5
:1027A00003F00103012B0BD17B681A683B68DB0146
:1027B0001344883301221A6039687868FFF785FB73
:1027C0007B681A683B680133DB01134404331B68E0
:1027D00003F00203022B16D17B681A683B68DB0109
:1027E00013448C331B6803F00203022B0BD17B686C
:1027F0001A683B68DB011344883302221A60396887
:102800007868FFF76DFB7B681A683B680133DB0172
:10281000134404331B6803F00403042B16D17B68B4
:102820001A683B68DB0113448C331B6803F0040314
:10283000042B0BD17B681A683B68DB011344883397
:1028400004221A6039687868FFF755FB7B681A68BC
:102850003B680133DB01134404331B6803F00803B6
:10286000082B16D17B681A683B68DB0113448C3354
:102870001B6803F00803082B0BD17B681A683B68C0
:10288000DB011344883308221A6039687868FFF73F
:102890003DFB7B681A683B680133DB01134404335A
:1028A0001B6803F01003102B16D17B681A683B6875
:1028B000DB0113448C331B6803F01003102B0BD186
:1028C0007B681A683B68DB011344883310221A6066
:1028D00039687868FFF7EEFA7B681A683B6801335D
:1028E000DB01134404331B6803F04003402B16D173
:1028F0007B681A683B68DB0113448C331B6803F068
:102900004003402B0BD17B681A683B68DB01134402
:10291000883340221A6039687868FFF7C0FA7B680C
:102920001A683B680133DB01134404331B6803F06E
:102930008003802B16D17B681A683B68DB01134447
:102940008C331B6803F08003802B0BD17B681A68E3
:102950003B68DB011344883380221A603968786849
:10296000FFF7DFFA7B681A683B680133DB01134429
:1029700004331B6803F48073B3F5807F18D17B6840
:102980001A683B68DB0113448C331B6803F48073C3
:10299000B3F5807F0CD17B681A683B68DB01134478
:1029A00088334FF480721A6039687868FFF7C4FA88
:1029B0007B681A683B680133DB01134404331B68EE
:1029C00003F40073B3F5007F18D17B681A683B6885
:1029D000DB0113448C331B6803F40073B3F5007FF1
:1029E0000CD17B681A683B68DB01134488334FF4D1
:1029F00000721A6039687868FFF7BFFA7B681A6856
:102A00003B680133DB01134404331B6803F4806328
:102A1000B3F5806F18D17B681A683B68DB011344FB
:102A20008C331B6803F48063B3F5806F0CD17B6833
:102A30001A683B68DB01134488334FF480621A60E4
:102A400039687868FFF7A4FA7B681A683B68013335
:102A5000DB01134404331B6803F40063B3F5006F18
:102A600018D17B681A683B68DB0113448C331B6800
:102A700003F40063B3F5006F0CD17B681A683B6800
:102A8000DB01134488334FF400621A6039687868B8
:102A9000FFF789FA7B681A683B680133DB0113444E
:102AA00004331B6803F48053B3F5805F18D17B684F
:102AB0001A683B68DB0113448C331B6803F48053B2
:102AC000B3F5805F0CD17B681A683B68DB01134467
:102AD00088334FF480521A6039687868FFF76EFACD
:102AE0007B681A683B680133DB01134404331B68BD
:102AF00003F40053B3F5005F18D17B681A683B6894
:102B0000DB0113448C331B6803F40053B3F5005FFF
:102B10000CD17B681A683B68DB01134488334FF49F
:102B200000521A6039687868FFF71CFA7B681A68E7
:102B30003B680133DB01134404331B6803F4804317
:102B4000B3F5804F18D17B681A683B68DB011344EA
:102B50008C331B6803F48043B3F5804F0CD17B6842
:102B60001A683B68DB01134488334FF480421A60D3
:102B700039687868FFF7EBF900BF0837BD4680BDBC
:102B800080B582B000AF78607B681B68002B20D0D6
:102B90007B681B68202B1CD07B681B68402B18D0DF
:102BA0007B681B68602B14D07B681B68802B10D05F
:102BB0007B681B68A02B0CD07B681B68C02B08D0DF
:102BC0007B681B68E02B04D04FF48871434807F002
:102BD000AAFD7B685B68B3F1011F21D07B685B684D
:102BE0003F4A93421CD07B685B683E4A934217D0B1
:102BF0007B685B683C4A934212D07B685B68B3F1A8
:102C0000021F0DD07B685B68384A934208D07B680E
:102C10005B68002B04D040F21111304807F083FDAF
:102C2000334B1B6823F0E0027B681B683049134379
:102C30000B60304B5B682F4A23F4803353602D4B7D
:102C40001B682C4A23F4803313604FF0B0431B6899
:102C50004FF0B04223F4803313604FF0B0435B6811
:102C60004FF0B04223F4803353607B685B6803F419
:102C70008033002B05D01F4B1B681E4A43F4803362
:102C800013607B685B6803F40033002B05D0194B9D
:102C90005B68184A43F4803353607B685B6803F0D9
:102CA0000103002B07D04FF0B0431B684FF0B04238
:102CB00043F4803313607B685B6803F00203002BEE
:102CC00007D04FF0B0435B684FF0B04243F480331D
:102CD000536000BF0837BD4680BD00BFECCD000883
:102CE00002000100030001000100020003000200D5
:102CF000004802588000005880B400AF054B1B68A4
:102D0000044A43F01003136000BFBD465DF8047B26
:102D1000704700BF0048025880B58EB000AF7860A1
:102D200000237B637B681B68002B28D07B681B68B3
:102D300003F00103002B22D17B681B6803F0020320
:102D4000002B1CD17B681B6803F01003002B16D1ED
:102D50007B681B6803F00803002B10D17B681B689D
:102D600003F00403002B0AD17B681B6803F02003E7
:102D7000002B04D140F213119D4807F0D4FC7B686E
:102D80001B6803F00103002B00F09A807B685B68EE
:102D9000002B0ED07B685B68B3F5803F09D07B6861
:102DA0005B68B3F5A02F04D04FF48C71904807F006
:102DB000BAFC904B1B6903F03803102B0BD08D4BE2
:102DC0001B6903F03803182B12D18A4B9B6A03F05E
:102DD0000303022B0CD1874B1B6803F40033002B39
:102DE0006DD07B685B68002B69D1012300F03EBC8D
:102DF0007B685B68B3F5803F06D17E4B1B687D4ADC
:102E000043F4803313602EE07B685B68002B0CD1A9
:102E1000784B1B68774A23F480331360754B1B682B
:102E2000744A23F4802313601DE07B685B68B3F56C
:102E3000A02F0CD16F4B1B686E4A43F480231360A4
:102E40006C4B1B686B4A43F4803313600BE0694B97
:102E50001B68684A23F480331360664B1B68654A1D
:102E600023F4802313607B685B68002B13D0FDF78D
:102E7000E5FB786308E0FDF7E1FB02467B6BD31AC4
:102E8000642B01D90323F1E35A4B1B6803F400338D
:102E9000002BF0D014E0FDF7D1FB786308E0FDF7DC
:102EA000CDFB02467B6BD31A642B01D90323DDE3F0
:102EB000504B1B6803F40033002BF0D100E000BF3F
:102EC0007B681B6803F00203002B00F0CA807B685C
:102ED000DB68002B18D07B68DB68012B14D07B6883
:102EE000DB68012B10D07B68DB68092B0CD07B687A
:102EF000DB68112B08D07B68DB68192B04D040F20B
:102F000049113B4807F00FFC7B681B69B3F5805FF4
:102F100004D34FF4A571364807F005FC354B1B6907
:102F200003F03803002B0BD0324B1B6903F038033E
:102F3000182B43D12F4B9B6A03F00303002B3DD189
:102F40002C4B1B6803F00403002B05D07B68DB6867
:102F5000002B01D1012389E3264B1B6823F01902C2
:102F60007B68DB68234913430B60FDF767FB7863DD
:102F700008E0FDF763FB02467B6BD31A022B01D9F5
:102F8000032373E31B4B1B6803F00403002BF0D0F7
:102F9000184B5B6823F47C327B6819694FF47C33EF
:102FA0003B633B6B93FAA3F3FB62FB6AB3FA83F3D5
:102FB00001FA03F30F4913434B6052E07B68DB686F
:102FC000002B35D00B4B1B6823F019027B68DB68A4
:102FD000084913430B60FDF731FB78630CE0FDF704
:102FE0002DFB02467B6BD31A022B05D903233DE34D
:102FF0003CCE000800440258A64B1B6803F00403B3
:10300000002BECD0A34B5B6823F47C327B681969FE
:103010004FF47C33BB62BB6A93FAA3F37B627B6A97
:10302000B3FA83F301FA03F39A4913434B6018E0B0
:10303000984B1B68974A23F001031360FDF7FEFAD3
:10304000786308E0FDF7FAFA02467B6BD31A022B8D
:1030500001D903230AE38F4B1B6803F00403002B01
:10306000F0D17B681B6803F01003002B00F0978001
:103070007B68DB69002B08D07B68DB69802B04D080
:103080004FF4CC71844807F04EFB7B681B6AB3F5A4
:10309000805F04D340F299117F4807F044FB7D4BD9
:1030A0001B6903F03803082B0BD07A4B1B6903F024
:1030B0003803182B27D1774B9B6A03F00303012BAE
:1030C00021D1744B1B6803F48073002B05D07B68FF
:1030D000DB69802B01D00123C8E26E4B5B6823F0D3
:1030E000F8427B68196A4FF0F8433B623B6A93FAF7
:1030F000A3F3FB61FB69B3FA83F301FA03F36549B8
:1031000013434B604BE07B68DB69002B2ED0614B97
:103110001B68604A43F080031360FDF78FFA786301
:1031200008E0FDF78BFA02467B6BD31A022B01D91C
:1031300003239BE2574B1B6803F48073002BF0D0F2
:10314000544B5B6823F0F8427B68196A4FF0F843F0
:10315000BB61BB6993FAA3F37B617B69B3FA83F329
:1031600001FA03F34B4913434B6018E0494B1B68CA
:10317000484A23F080031360FDF760FA786308E0A3
:10318000FDF75CFA02467B6BD31A022B01D90323AD
:103190006CE2404B1B6803F48073002BF0D17B681A
:1031A0001B6803F00803002B43D07B685B69002B8E
:1031B00008D07B685B69012B04D04FF4EC71364872
:1031C00007F0B1FA7B685B69002B19D0314B5B6F5C
:1031D000304A43F001035367FDF730FA786308E0A3
:1031E000FDF72CFA02467B6BD31A022B01D903237D
:1031F0003CE2284B5B6F03F00203002BF0D018E099
:10320000244B5B6F234A23F001035367FDF716FA43
:10321000786308E0FDF712FA02467B6BD31A022BA3
:1032200001D9032322E21B4B5B6F03F00203002B47
:10323000F0D17B681B6803F02003002B47D07B682C
:103240009B69002B08D07B689B69012B04D040F25E
:103250000321114807F067FA7B689B69002B1DD09A
:103260000C4B1B680B4A43F480531360FDF7E6F9DF
:10327000786308E0FDF7E2F902467B6BD31A022B74
:1032800001D90323F2E1034B1B6803F40053002B25
:10329000F0D01CE0004402583CCE00089E4B1B6856
:1032A0009D4A23F480531360FDF7C8F9786308E062
:1032B000FDF7C4F902467B6BD31A022B01D9032315
:1032C000D4E1954B1B6803F40053002BF0D17B68CD
:1032D0001B6803F00403002B00F092807B689B685E
:1032E000002B0CD07B689B68012B08D07B689B6807
:1032F000052B04D040F22D21884807F014FA884BA2
:103300001B68874A43F480731360FDF797F978636D
:1033100008E0FDF793F902467B6BD31A642B01D9C1
:103320000323A3E17E4B1B6803F48073002BF0D0D2
:103330007B689B68012B06D1774B1B6F764A43F065
:10334000010313672DE07B689B68002B0CD1724B47
:103350001B6F714A23F0010313676F4B1B6F6E4A9B
:1033600023F0040313671CE07B689B68052B0CD1DA
:10337000694B1B6F684A43F004031367664B1B6F6E
:10338000654A43F0010313670BE0634B1B6F624A0E
:1033900023F001031367604B1B6F5F4A23F00403A4
:1033A00013677B689B68002B15D0FDF747F978639E
:1033B0000AE0FDF743F902467B6BD31A41F28832EB
:1033C000934201D9032351E1534B1B6F03F00203D6
:1033D000002BEED014E0FDF731F978630AE0FDF739
:1033E0002DF902467B6BD31A41F28832934201D900
:1033F00003233BE1484B1B6F03F00203002BEED18C
:103400007B685B6A002B0CD07B685B6A012B08D061
:103410007B685B6A022B04D040F25F213F4807F0D3
:1034200082F97B685B6A002B00F01F813A4B1B69B5
:1034300003F03803182B00F016817B685B6A022BBF
:1034400040F0F7807B689B6A012B10D07B689B6AF9
:10345000002B0CD07B689B6A032B08D07B689B6A8F
:10346000022B04D04FF41A712C4807F05CF97B68EA
:10347000DB6A002B03D07B68DB6A3F2B04D940F268
:103480006921264807F04FF97B681B6B032B04D991
:103490007B681B6BB3F5007F04D940F26A211F489B
:1034A00007F041F97B685B6B002B03D07B685B6B9B
:1034B000802B04D940F26B21184807F034F97B685F
:1034C0009B6B002B03D07B689B6B802B04D94FF444
:1034D0001B71124807F027F97B68DB6B002B03D0C8
:1034E0007B68DB6B802B04D940F26D210B4807F021
:1034F0001AF9094B1B68084A23F080731360FDF723
:103500009DF878630EE0FDF799F802467B6BD31ABD
:10351000022B07D90323A9E0004402583CCE00083F
:1035200000480258534B1B6803F00073002BEAD18C
:10353000504B9A6A504B13407A68916A7A68D26A03
:1035400012010A434B4913438B627B681B6B013B9F
:10355000C3F308027B685B6B013B5B029BB21A43BF
:103560007B689B6B013B1B0403F4FE031A437B68DF
:10357000DB6B013B1B0603F0FE433E4913430B6329
:103580003C4B5A6B3D4B13407A68916C4FF6F87286
:103590003A613A6992FAA2F2FA60FA68B2FA82F2F1
:1035A00001FA02F2334913434B63324BDB6A23F0D7
:1035B0000C027B681B6C2F491343CB622D4BDB6ADB
:1035C00023F002027B685B6C2A491343CB62294BD0
:1035D000DB6A284A43F48033D362264BDB6A254AF0
:1035E00043F40033D362234BDB6A224A43F4802343
:1035F000D362204BDB6A1F4A43F00103D3621D4BA9
:103600001B681C4A43F080731360FDF717F878635A
:1036100008E0FDF713F802467B6BD31A022B01D9A1
:10362000032323E0134B1B6803F00073002BF0D03F
:103630001BE0104B1B680F4A23F080731360FCF7EC
:10364000FDFF786308E0FCF7F9FF02467B6BD31AB5
:10365000022B01D9032309E0064B1B6803F000731A
:10366000002BF0D101E0012300E000231846383799
:10367000BD4680BD004402580CFCFFFF0700FFFF61
:1036800080B586B000AF7860396000237B617B68CD
:103690001B68002B03D07B681B683F2B04D940F2CA
:1036A000E321A14807F03FF83B68002B19D03B68A5
:1036B000012B16D03B68022B13D03B68032B10D094
:1036C0003B68042B0DD03B68052B0AD03B68062BCA
:1036D00007D03B68072B04D04FF43971924807F0AC
:1036E00022F8924B1B6803F007033A689A4210D9FC
:1036F0008E4B1B6823F007028C493B6813430B6019
:103700008A4B1B6803F007033A689A4201D00123F1
:10371000FAE17B681B6803F00203002B31D07B6861
:10372000DB68002B24D07B68DB68082B20D07B680B
:10373000DB68092B1CD07B68DB680A2B18D07B6800
:10374000DB680B2B14D07B68DB680C2B10D07B68FC
:10375000DB680D2B0CD07B68DB680E2B08D07B68F8
:10376000DB680F2B04D040F2FB216F4806F0DBFF33
:103770006F4B9B6923F00F027B68DB686C49134336
:103780008B617B681B6803F00103002B00F0E38072
:103790007B689B68002B2CD07B689B68B3F5006F1F
:1037A00027D07B689B68B3F5106F22D07B689B683D
:1037B000B3F5206F1DD07B689B68B3F5306F18D0D0
:1037C0007B689B68B3F5406F13D07B689B68B3F54B
:1037D000506F0ED07B689B68B3F5606F09D07B6833
:1037E0009B68B3F5706F04D040F202314E4806F08A
:1037F0009AFF7B685B68012B10D07B685B68002BAD
:103800000CD07B685B68022B08D07B685B68032B5D
:1038100004D040F20331444806F085FF444B9B69D5
:1038200023F470627B689B68414913438B617B681A
:103830005B68022B07D13E4B1B6803F40033002B5F
:1038400021D1012360E17B685B68032B07D1384BF2
:103850001B6803F00073002B15D1012354E17B6832
:103860005B68012B07D1324B1B6803F48073002B7C
:1038700009D1012348E12E4B1B6803F00403002B00
:1038800001D1012340E12A4B1B6923F007027B6829
:103890005B68274913430B61FCF7D0FE78617B68B6
:1038A0005B68022B12D10AE0FCF7C8FE02467B6976
:1038B000D31A41F28832934201D9032324E11C4BED
:1038C0001B6903F03803102BEED144E07B685B6882
:1038D000032B12D10AE0FCF7B1FE02467B69D31A32
:1038E00041F28832934201D903230DE1104B1B6949
:1038F00003F03803182BEED12DE07B685B68012BB9
:1039000023D10AE0FCF79AFE02467B69D31A41F202
:103910008832934201D90323F6E0054B1B6903F07B
:103920003803082BEED116E03CCE000800200052F0
:1039300000440258FCF782FE02467B69D31A41F22A
:103940008832934201D90323DEE0714B1B6903F0F7
:103950003803002BEED16F4B1B6803F007033A6866
:103960009A4210D26B4B1B6823F0070269493B68EF
:1039700013430B60674B1B6803F007033A689A42D6
:1039800001D00123C0E07B681B6803F00403002B17
:1039900021D07B681B69002B14D07B681B69402BEE
:1039A00010D07B681B69502B0CD07B681B69602B87
:1039B00008D07B681B69702B04D040F269315648EF
:1039C00006F0B1FE524B9B6923F070027B681B69C5
:1039D0004F4913438B617B681B6803F00803002B7E
:1039E00021D07B685B69002B14D07B685B69402B1E
:1039F00010D07B685B69502B0CD07B685B69602BB7
:103A000008D07B685B69702B04D04FF45C7142482E
:103A100006F089FE3E4BDB6923F070027B685B6930
:103A20003B491343CB617B681B6803F01003002BF9
:103A300025D07B689B69002B18D07B689B69B3F508
:103A4000806F13D07B689B69B3F5A06F0ED07B6845
:103A50009B69B3F5C06F09D07B689B69B3F5E06FD4
:103A600004D040F277312C4806F05DFE284BDB692C
:103A700023F4E0627B689B6925491343CB617B6833
:103A80001B6803F02003002B21D07B68DB69002B2F
:103A900014D07B68DB69402B10D07B68DB69502B2E
:103AA0000CD07B68DB69602B08D07B68DB69702BEE
:103AB00004D040F27F31184806F035FE144B1B6AE3
:103AC00023F070027B68DB69114913430B6200F03D
:103AD00029F801460E4B9B6903F470624FF4807322
:103AE0003B613B6993FAA3F3FB60FB68B3FA83F392
:103AF00022FA03F3094AD35C21FA03F3084A13605C
:103B0000002006F057FF002318461837BD4680BD39
:103B100000440258002000523CCE0008A0D000080B
:103B20000C00002480B489B000AF01237B61002326
:103B30003B610123FB600023BB6000237B604FF0EF
:103B400000033B604FF00003FB610023BB61A84B07
:103B50001B6903F03803182B00F23F8101A252F8D1
:103B600023F000BFC93B0008DB3D0008DB3D000837
:103B7000DB3D0008DB3D0008DB3D0008DB3D0008C5
:103B8000DB3D0008EF3B0008DB3D0008DB3D0008A3
:103B9000DB3D0008DB3D0008DB3D0008DB3D0008A5
:103BA000DB3D0008F53B0008DB3D0008DB3D00087D
:103BB000DB3D0008DB3D0008DB3D0008DB3D000885
:103BC000DB3D0008FB3B0008894B1B6803F020032A
:103BD000002B09D0864B1B68DB0803F00303854AE2
:103BE00022FA03F3BB61FBE0824BBB61F8E0824B3E
:103BF000BB61F5E0814BBB61F2E07D4B9B6A03F05A
:103C000003033B617A4B9B6A1B0903F03F03FB6094
:103C1000774BDB6A03F00103BB60754B5B6BDB0822
:103C2000C3F30C03BA6802FB03F307EE903AF8EE15
:103C3000677AC7ED007A3B69012B55D0012B02D37F
:103C4000022B72D092E06A4B1B6803F02003002B1A
:103C500029D0674B1B68DB0803F00303654A22FA8F
:103C600003F37B607A68FB68B2FBF3F307EE903AEC
:103C7000B8EE677A5E4B1B6BC3F3080307EE903A0E
:103C8000F8EE676A97ED006ADFED5D5AC6EE257AB9
:103C900076EEA77AF7EE006A77EEA67A67EE277AD5
:103CA000C7ED077A83E0534AFB68B2FBF3F307EEF4
:103CB000903AB8EE677A4E4B1B6BC3F3080307EEDE
:103CC000903AF8EE676A97ED006ADFED4D5AC6EE5E
:103CD000257A76EEA77AF7EE006A77EEA67A67EE97
:103CE000277AC7ED077A62E0434AFB68B2FBF3F339
:103CF00007EE903AB8EE677A3D4B1B6BC3F30803AF
:103D000007EE903AF8EE676A97ED006ADFED3C5AED
:103D1000C6EE257A76EEA77AF7EE006A77EEA67AF7
:103D200067EE277AC7ED077A41E0344AFB68B2FBB9
:103D3000F3F307EE903AB8EE677A2D4B1B6BC3F3A3
:103D4000080307EE903AF8EE676A97ED006ADFED38
:103D50002C5AC6EE257A76EEA77AF7EE006A77EE51
:103D6000A67A67EE277AC7ED077A20E0224AFB6839
:103D7000B2FBF3F307EE903AB8EE677A1C4B1B6B7D
:103D8000C3F3080307EE903AF8EE676A97ED006A0E
:103D9000DFED1B5AC6EE257A76EEA77AF7EE006ABB
:103DA00077EEA67A67EE277AC7ED077A00BF104B49
:103DB0001B6B5B0A03F07F0301337B617B6907EEBA
:103DC000903AB8EE677AD7ED076AC6EE877AFCEECE
:103DD000E77A17EE903ABB6102E0074BBB6100BF88
:103DE000BB6918462437BD465DF8047B704700BFA9
:103DF000004402580090D00300093D0000127A00F0
:103E00000000004680B582B000AF01F009FD014618
:103E10000D4B9B6903F00F0201237B607B6893FAD3
:103E2000A3F33B603B68B3FA83F322FA03F3074A38
:103E3000D35C21FA03F3064A1360054B1B6818464E
:103E40000837BD4680BD00BF00440258A0D000081E
:103E50001000002480B582B000AFFFF7D3FF014609
:103E60000B4BDB6903F0700210237B607B6893FAD5
:103E7000A3F33B603B68B3FA83F322FA03F3054AEA
:103E8000D35C21FA03F318460837BD4680BD00BF56
:103E900000440258A0D0000880B582B000AFFFF700
:103EA000B1FF01460B4BDB6903F4E0624FF4807312
:103EB0007B607B6893FAA3F33B603B68B3FA83F3C0
:103EC00022FA03F3044AD35C21FA03F318460837B5
:103ED000BD4680BD00440258A0D0000880B483B025
:103EE00000AF786039607B683F221A601A4B1B690B
:103EF00003F007027B685A60174B9B6903F47062FA
:103F00007B689A60144B9B6903F00F027B68DA6050
:103F1000114B9B6903F070027B681A610E4BDB69E1
:103F200003F070027B685A610B4BDB6903F4E062BB
:103F30007B689A61084B1B6A03F070027B68DA6148
:103F4000064B1B6803F007023B681A6000BF0C3782
:103F5000BD465DF8047B70470044025800200052C3
:103F600080B586B000AF78600023FB750023BB7579
:103F70007B681B6803F00063002B3FD07B685B6E9F
:103F8000B3F5801F13D0B3F5801F02D8002B07D0E4
:103F90001FE0B3F5001F13D0B3F5401F1CD018E08D
:103FA000B14BDB6AB04A43F40033D36215E07B685F
:103FB00004330221184601F05BFC0346FB750CE05C
:103FC0007B6824330221184601F030FD0346FB755F
:103FD00003E00123FB7500E000BFFB7D002B09D14E
:103FE000A14B1B6D23F440127B685B6E9E4913430B
:103FF0000B6503E0BA7DFB7D1343BB757B681B68D3
:1040000003F48073002B3FD07B685B6D042B26D8B4
:1040100001A252F823F000BF2D4000083B400008E9
:104020004D40000865400008654000088E4BDB6A83
:104030008D4A43F40033D36215E07B6804330021DA
:10404000184601F015FC0346FB750CE07B68243331
:104050000021184601F0EAFC0346FB7503E001234A
:10406000FB7500E000BFFB7D002B09D17E4B1B6D73
:1040700023F007027B685B6D7B4913430B6503E00C
:10408000BA7DFB7D1343BB757B681B6803F400732B
:10409000002B40D07B689B6D802B1CD0802B04D8DC
:1040A000002B08D0402B0DD01EE0C02B1FD0B3F545
:1040B000807F1ED018E06C4BDB6A6B4A43F4003300
:1040C000D36217E07B6804330021184601F0D0FB6F
:1040D0000346FB750EE07B6824330021184601F08F
:1040E000A5FC0346FB7505E00123FB7502E000BF5C
:1040F00000E000BFFB7D002B09D15B4B1B6D23F45F
:10410000E0727B689B6D584913430B6503E0BA7DF1
:10411000FB7D1343BB757B681B6803F48063002B36
:1041200046D07B68D3F8A430B3F5800F1FD0B3F529
:10413000800F05D8002B0AD0B3F5001F0ED01FE06A
:10414000B3F5C00F1FD0B3F5000F1ED018E0464BDB
:10415000DB6A454A43F40033D36217E07B680433DB
:104160000021184601F084FB0346FB750EE07B68D6
:1041700024330021184601F059FC0346FB7505E085
:104180000123FB7502E000BF00E000BFFB7D002BB8
:104190000AD1354B9B6D23F460027B68D3F8A430C1
:1041A000314913438B6503E0BA7DFB7D1343BB7537
:1041B0007B681B6803F40063002B46D07B68D3F850
:1041C000A830B3F1007F1FD0B3F1007F05D8002BDA
:1041D0000AD0B3F1807F0ED01FE0B3F1407F1FD033
:1041E000B3F1806F1ED018E01F4BDB6A1E4A43F408
:1041F0000033D36217E07B6804330021184601F0D6
:1042000037FB0346FB750EE07B682433002118461C
:1042100001F00CFC0346FB7505E00123FB7502E091
:1042200000BF00E000BFFB7D002B0AD10E4B9B6D51
:1042300023F0E0627B68D3F8A8300B4913438B6509
:1042400003E0BA7DFB7D1343BB757B681B6803F0FD
:104250000073002B36D07B689B6C102B0BD0102B7F
:1042600004D8002B1AD016E000440258202B09D0A5
:10427000302B15D00FE0AE4BDB6AAD4A43F4003370
:10428000D3620EE07B6804330221184601F0F0FA95
:104290000346FB7505E00123FB7502E000BF00E06B
:1042A00000BFFB7D002B09D1A14BDB6C23F030025A
:1042B0007B689B6C9E491343CB6403E0BA7DFB7D16
:1042C0001343BB757B681B6803F48053002B44D0F9
:1042D0007B68DB6DB3F5005F1FD0B3F5005F05D8D9
:1042E000002B0AD0B3F5805F0ED01FE0B3F5405F1E
:1042F0001FD0B3F5804F1ED018E08D4BDB6A8C4A7F
:1043000043F40033D36217E07B680433002118467E
:1043100001F0AEFA0346FB750EE07B682433002102
:10432000184601F083FB0346FB7505E00123FB758E
:1043300002E000BF00E000BFFB7D002B09D17C4BF9
:104340001B6D23F4E0427B68DB6D794913430B65F9
:1043500003E0BA7DFB7D1343BB757B681B6803F4E8
:104360000053002B44D07B681B6EB3F5003F1BD07D
:10437000B3F5003F05D8002B22D0B3F5803F0AD01B
:104380001BE0B3F5802F1DD0B3F5A02F1CD0B3F5E3
:10439000403F1BD011E07B6804330121184601F037
:1043A00067FA0346FB7512E07B6824330121184647
:1043B00001F03CFB0346FB7509E00123FB7506E0B9
:1043C00000BF04E000BF02E000BF00E000BFFB7DD3
:1043D000002B09D1564B1B6D23F4E0227B681B6E2A
:1043E000534913430B6503E0BA7DFB7D1343BB7553
:1043F0007B681B6803F48043002B46D07B68D3F8AE
:10440000AC30B3F1005F1BD0B3F1005F05D8002BD7
:1044100022D0B3F1805F0AD01BE0B3F1804F1DD0F2
:10442000B3F1A04F1CD0B3F1405F1BD011E07B680B
:1044300004330121184601F01BFA0346FB7512E014
:104440007B6824330121184601F0F0FA0346FB751E
:1044500009E00123FB7506E000BF04E000BF02E0B5
:1044600000BF00E000BFFB7D002B0AD1304B9B6DED
:1044700023F0E0427B68D3F8AC302D4913438B65C1
:1044800003E0BA7DFB7D1343BB757B681B6803F4B7
:104490000043002B2FD07B68DB6EB3F1805F05D02B
:1044A000B3F1005F09D0002B13D00FE0204BDB6A83
:1044B0001F4A43F40033D3620CE07B6804330121CC
:1044C000184601F0D5F90346FB7503E00123FB759F
:1044D00000E000BFFB7D002B09D1154B1B6D23F0C5
:1044E00040527B68DB6E124913430B6503E0BA7DD3
:1044F000FB7D1343BB757B681B6803F08073002B47
:1045000038D07B685B6C032B1DD801A252F823F0D6
:104510004D45000821450008354500084D45000877
:10452000034BDB6A024A43F40033D3620FE000BF5F
:10453000004402587B6804330221184601F098F9C0
:104540000346FB7503E00123FB7500E000BFFB7D24
:10455000002B0BD1044BDB6C23F003027B685B6CFC
:1045600001491343CB6405E000440258BA7DFB7D4A
:104570001343BB757B681B6803F48003002B00F0BA
:104580009F827B68D3F8B030B3F5807F00F0A981BB
:104590007B68D3F8B030B3F5007F00F0A2817B6870
:1045A000D3F8B030B3F50C5F00F09B817B68D3F893
:1045B000B030B3F54C5F00F094817B68D3F8B03035
:1045C000B3F5864F00F08D817B68D3F8B030B3F53A
:1045D000A64F00F086817B68D3F8B030B3F5C64FA4
:1045E00000F07F817B68D3F8B030B3F5E64F00F080
:1045F00078817B68D3F8B030B3F5034F00F0718158
:104600007B68D3F8B030B3F5134F00F06A817B6854
:10461000D3F8B030B3F5234F00F063817B68D3F853
:10462000B030B3F5334F00F05C817B68D3F8B03025
:10463000B3F5434F00F055817B68D3F8B030B3F544
:10464000534F00F04E817B68D3F8B030B3F5634F21
:1046500000F047817B68D3F8B030B3F5734F00F0BA
:1046600040817B68D3F8B030A84A934200F039818A
:104670007B68D3F8B030A64A934200F032817B6861
:10468000D3F8B030A34A934200F02B817B68D3F873
:10469000B030A14A934200F024817B68D3F8B03057
:1046A0009E4A934200F01D817B68D3F8B0309C4A4B
:1046B000934200F016817B68D3F8B030994A934258
:1046C00000F00F817B68D3F8B030974A934200F036
:1046D00008817B68D3F8B030944A934200F001819E
:1046E0007B68D3F8B030924A934200F0FA807B683E
:1046F000D3F8B0308F4A934200F0F3807B68D3F850
:10470000B0308D4A934200F0EC807B68D3F8B03033
:104710008A4A934200F0E5807B68D3F8B030884A3B
:10472000934200F0DE807B68D3F8B030854A934234
:1047300000F0D7807B68D3F8B030834A934200F012
:10474000D0807B68D3F8B030804A934200F0C980B3
:104750007B68D3F8B0307E4A934200F0C2807B6819
:10476000D3F8B0307B4A934200F0BB807B68D3F82B
:10477000B030794A934200F0B4807B68D3F8B0300F
:10478000764A934200F0AD807B68D3F8B030744A2B
:10479000934200F0A6807B68D3F8B030714A934210
:1047A00000F09F807B68D3F8B0306F4A934200F0EE
:1047B00098807B68D3F8B0306C4A934200F09180C7
:1047C0007B68D3F8B0306A4A934200F08A807B68F5
:1047D000D3F8B030674A934200F083807B68D3F807
:1047E000B030654A93427CD07B68D3F8B030634ADE
:1047F000934276D07B68D3F8B030614A934270D050
:104800007B68D3F8B0305F4A93426AD07B68D3F8B4
:10481000B0305D4A934264D07B68D3F8B0305B4AD5
:1048200093425ED07B68D3F8B030594A934258D057
:104830007B68D3F8B030574A934252D07B68D3F8A4
:10484000B030554A93424CD07B68D3F8B030534ACD
:10485000934246D07B68D3F8B030514A934240D05F
:104860007B68D3F8B0304F4A93423AD07B68D3F894
:10487000B0304D4A934234D07B68D3F8B0304B4AC5
:1048800093422ED07B68D3F8B030494A934228D067
:104890007B68D3F8B030474A934222D07B68D3F884
:1048A000B030454A93421CD07B68D3F8B030434ABD
:1048B000934216D07B68D3F8B030414A934210D06F
:1048C0007B68D3F8B0303F4A93420AD07B68D3F874
:1048D000B0303D4A934204D040F2A9213B4805F054
:1048E00022FF3B4B1B683A4A43F480731360FBF78B
:1048F000A5FE38616EE0FBF7A1FE02463B69D31AC4
:10490000642B67D90323FB756AE000BF0003010035
:1049100000130100002301000033010000430100E7
:1049200000530100006301000073010000830100D7
:104930000093010000A3010000B3010000C30100C7
:1049400000D3010000E3010000F3010000030200B6
:1049500000130200002302000033020000430200A3
:104960000053020000630200007302000083020093
:104970000093020000A3020000B3020000C3020083
:1049800000D3020000E3020000F302000003030072
:10499000001303000023030000330300004303005F
:1049A000005303000063030000730300008303004F
:1049B0000093030000A3030000B3030000C303003F
:1049C00000D3030000E3030000F303008CCE0008D3
:1049D00000480258BD4B1B6803F48073002B8AD03B
:1049E000FB7D002B68D1BA4B1A6F7B68D3F8B030CF
:1049F000534003F44073002B13D0B54B1B6F23F4CB
:104A00004073FB60B24B1B6FB14A43F480331367B2
:104A1000AF4B1B6FAE4A23F480331367AC4AFB687D
:104A200013677B68D3F8B030B3F5807F15D1FBF7FF
:104A300005FE38610BE0FBF701FE02463B69D31A25
:104A400041F28832934202D90323FB7505E0A04B63
:104A50001B6F03F00203002BEDD0FB7D002B26D152
:104A60007B68D3F8B03003F44073B3F5407F0DD1C9
:104A7000974B1B6923F47C527B68D3F8B03019093B
:104A8000944B0B40924913430B6105E0904B1B691B
:104A90008F4A23F47C5313618D4B1A6F7B68D3F8D4
:104AA000B030C3F30B038A4913430B6708E0BA7DA8
:104AB000FB7D1343BB7503E0BA7DFB7D1343BB75E0
:104AC0007B681B6803F00103002B00F080807B688B
:104AD0009B6F282B66D801A252F823F0AB4B00083D
:104AE000A54B0008A54B0008A54B0008A54B0008E6
:104AF000A54B0008A54B0008A54B0008814B0008FA
:104B0000A54B0008A54B0008A54B0008A54B0008C5
:104B1000A54B0008A54B0008A54B0008934B0008C7
:104B2000A54B0008A54B0008A54B0008A54B0008A5
:104B3000A54B0008A54B0008A54B0008AB4B00088F
:104B4000A54B0008A54B0008A54B0008A54B000885
:104B5000A54B0008A54B0008A54B0008AB4B00086F
:104B6000A54B0008A54B0008A54B0008A54B000865
:104B7000A54B0008A54B0008A54B0008AB4B00084F
:104B80007B6804330121184600F072FE0346FB7572
:104B90000CE07B6824330121184600F047FF0346F0
:104BA000FB7503E00123FB7500E000BFFB7D002BDC
:104BB00009D1474B5B6D23F038027B689B6F4449FA
:104BC00013434B6503E0BA7DFB7D1343BB757B68E4
:104BD0001B6803F00203002B39D07B685B6F052B49
:104BE00020D801A252F823F02B4C0008014C0008F9
:104BF000134C00082B4C00082B4C00082B4C0008D1
:104C00007B6804330121184600F032FE0346FB7531
:104C10000CE07B6824330121184600F007FF0346AF
:104C2000FB7503E00123FB7500E000BFFB7D002B5B
:104C300009D1274B5B6D23F007027B685B6F24492A
:104C400013434B6503E0BA7DFB7D1343BB757B6863
:104C50001B6803F00403002B42D07B68D3F890302C
:104C6000052B21D801A252F823F000BFAF4C000859
:104C7000854C0008974C0008AF4C0008AF4C00086A
:104C8000AF4C00087B6804330121184600F0F0FDAA
:104C90000346FB750CE07B6824330121184600F0C5
:104CA000C5FE0346FB7503E00123FB7500E000BF72
:104CB000FB7D002B10D1064B9B6D23F007027B6818
:104CC000D3F89030024913438B6509E0004802583D
:104CD00000440258CFFFFF00BA7DFB7D1343BB7534
:104CE0007B681B6803F02003002B46D07B68D3F859
:104CF0008C30B3F1005F1BD0B3F1005F05D8002BFF
:104D000022D0B3F1805F0AD01BE0B3F1804F1DD0F9
:104D1000B3F1A04F1CD0B3F1405F1BD011E07B6812
:104D200004330021184600F0A3FD0346FB7512E092
:104D30007B6824330221184600F078FE0346FB7599
:104D400009E00123FB7506E000BF04E000BF02E0BC
:104D500000BF00E000BFFB7D002B0AD1AC4B5B6DB8
:104D600023F0E0427B68D3F88C30A94913434B65AC
:104D700003E0BA7DFB7D1343BB757B681B6803F0C2
:104D80004003002B46D07B68D3F89830B3F5006F12
:104D90001BD0B3F5006F05D8002B22D0B3F5806F80
:104DA0000AD01BE0B3F5805F1DD0B3F5A05F1CD027
:104DB000B3F5406F1BD011E07B6804330021184627
:104DC00000F056FD0346FB7512E07B682433022198
:104DD000184600F02BFE0346FB7509E00123FB7526
:104DE00006E000BF04E000BF02E000BF00E000BF3B
:104DF000FB7D002B0AD1864B9B6D23F4E0527B6830
:104E0000D3F89830824913438B6503E0BA7DFB7D6C
:104E10001343BB757B681B6803F08003002B46D0EF
:104E20007B68D3F89C30B3F5804F1BD0B3F5804F2F
:104E300005D8002B22D0B3F5005F0AD01BE0B3F5F4
:104E4000004F1DD0B3F5204F1CD0B3F5C04F1BD081
:104E500011E07B6804330021184600F009FD034689
:104E6000FB7512E07B6824330221184600F0DEFD5A
:104E70000346FB7509E00123FB7506E000BF04E073
:104E800000BF02E000BF00E000BFFB7D002B0AD1A5
:104E90005F4B9B6D23F460427B68D3F89C305C4988
:104EA00013438B6503E0BA7DFB7D1343BB757B68C1
:104EB0001B6803F00803002B37D07B68D3F88030E1
:104EC000B3F5805F15D07B68D3F88030B3F5005F11
:104ED0000FD07B68D3F88030002B0AD07B68D3F8E2
:104EE0008030B3F5405F04D040F22741494805F0D7
:104EF0001AFC7B68D3F88030B3F5805F0BD17B68F8
:104F000024330221184600F091FD03461A46BB7D6A
:104F10001343BB7509E03E4B5B6D23F440527B6845
:104F2000D3F880303A4913434B657B681B6803F024
:104F30001003002B37D07B68D3F89430B3F5807F13
:104F400015D07B68D3F89430B3F5007F0FD07B6821
:104F5000D3F89430002B0AD07B68D3F89430B3F5A3
:104F6000405F04D040F239412A4805F0DCFB7B6801
:104F7000D3F89430B3F5807F0BD17B6824330221C2
:104F8000184600F053FD03461A46BB7D1343BB751C
:104F900009E01F4B9B6D23F440727B68D3F894307B
:104FA0001B4913438B657B681B6803F40023002BAC
:104FB00036D07B68D3F8A030B3F5803F0DD0B3F581
:104FC000003F16D0002B11D17B6804330021184616
:104FD00000F04EFC0346FB750CE07B682433022195
:104FE000184600F023FD0346FB7503E00123FB7523
:104FF00000E000BFFB7D002B0ED1054B9B6D23F421
:1050000040327B68D3F8A030014913438B6507E039
:10501000004402588CCE0008BA7DFB7D1343BB755B
:105020007B681B6803F48023002B31D07B68D3F8A6
:105030008430B3F5001F0CD0B3F5401F15D0B3F585
:10504000801F0FD1AB4BDB6AAA4A43F40033D36213
:105050000CE07B6824330121184600F0E7FC03468E
:10506000FB7503E00123FB7500E000BFFB7D002B17
:105070000AD1A04B5B6D23F440127B68D3F88430D7
:105080009C4913434B6503E0BA7DFB7D1343BB751D
:105090007B681B6803F48033002B39D07B68DB6CA2
:1050A000002B09D07B68DB6CB3F5803F04D040F265
:1050B0009E41914805F037FB7B68DB6C002B03D0E9
:1050C000B3F5803F07D00FE08A4BDB6A894A43F48F
:1050D0000033D3620BE07B6804330221184600F0F2
:1050E000C7FB0346FB7502E00123FB7500BFFB7D98
:1050F000002B09D17F4BDB6C23F480327B68DB6CA7
:105100007C491343CB6403E0BA7DFB7D1343BB753D
:105110007B681B6803F00053002B0AD07B682433A4
:105120000221184600F082FC03461A46BB7D134359
:10513000BB757B681B6803F40033002B31D07B68A0
:10514000DB6FB3F5807F0CD0B3F5807F02D8002BE6
:1051500011D00DE0B3F5007F0FD0B3F5407F0ED036
:1051600006E0644BDB6A634A43F40033D36207E032
:105170000123FB7504E000BF02E000BF00E000BFB8
:10518000FB7D002B09D15B4B5B6D23F440727B6888
:10519000DB6F584913434B6503E0BA7DFB7D134336
:1051A000BB757B681B6803F48013002B16D07B68EB
:1051B0001B6F002B09D07B681B6FB3F1004F04D02D
:1051C0004FF49F614C4805F0AEFA4A4B1B6D23F03B
:1051D00000427B681B6F474913430B657B681B6864
:1051E00003F08053002B19D07B68D3F8B430002B28
:1051F0000AD07B68D3F8B430B3F5804F04D040F2C6
:1052000002513D4805F08FFA3A4B1B6923F4804266
:105210007B68D3F8B430374913430B617B681B6854
:1052200003F40013002B16D07B689B6E002B09D073
:105230007B689B6EB3F1807F04D040F20C512E4806
:1052400005F071FA2B4B1B6D23F080727B689B6E0F
:10525000284913430B657B681B6803F08043002BD0
:105260001DD07B68D3F8B830002B0AD07B68D3F808
:10527000B830B3F5004F04D040F216511E4805F087
:1052800052FA1C4B1B691B4A23F400431361194B50
:105290001A697B68D3F8B830164913430B617B68F1
:1052A0001B68002B1BDA7B681B6D002B0ED07B6804
:1052B0001B6DB3F1805F09D07B681B6DB3F1005F9C
:1052C00004D04FF4A4610C4805F02DFA094BDB6CB7
:1052D00023F040527B681B6D06491343CB64BB7DB2
:1052E000002B01D1002300E0012318461837BD46EA
:1052F00080BD00BF004402588CCE000880B582B04B
:1053000000AFFEF77FFD01460B4B1B6A03F07002F6
:1053100010237B607B6893FAA3F33B603B68B3FA8E
:1053200083F322FA03F3054AD35C21FA03F3184608
:105330000837BD4680BD00BF00440258A0D0000819
:1053400080B489B000AF78600023BB6101237B612A
:1053500000233B610023FB604FF00003BB604FF074
:105360000003FB618D4B9B6A03F00303BB618B4B16
:105370009B6A1B0B03F03F037B61884BDB6A03F0E6
:1053800010033B61854BDB6BDB08C3F30C033A690D
:1053900002FB03F307EE903AF8EE677AC7ED027A64
:1053A000BB69012B55D0012B02D3022B72D092E0A6
:1053B0007A4B1B6803F02003002B29D0774B1B6826
:1053C000DB0803F00303764A22FA03F3FB60FA6872
:1053D0007B69B2FBF3F307EE903AB8EE677A6F4B56
:1053E0009B6BC3F3080307EE903AF8EE676A97EDFC
:1053F000026ADFED6C5AC6EE257A76EEA77AF7EEF2
:10540000006A77EEA67A67EE277AC7ED077A83E01F
:10541000634A7B69B2FBF3F307EE903AB8EE677A22
:105420005E4B9B6BC3F3080307EE903AF8EE676A96
:1054300097ED026ADFED5B5AC6EE257A76EEA77A23
:10544000F7EE006A77EEA67A67EE277AC7ED077A5D
:1054500062E0554A7B69B2FBF3F307EE903AB8EE8F
:10546000677A4E4B9B6BC3F3080307EE903AF8EE56
:10547000676A97ED026ADFED4B5AC6EE257A76EE43
:10548000A77AF7EE006A77EEA67A67EE277AC7ED7D
:10549000077A41E0454A7B69B2FBF3F307EE903AA5
:1054A000B8EE677A3D4B9B6BC3F3080307EE903A67
:1054B000F8EE676A97ED026ADFED3A5AC6EE257A92
:1054C00076EEA77AF7EE006A77EEA67A67EE277A8D
:1054D000C7ED077A20E0344A7B69B2FBF3F307EEAD
:1054E000903AB8EE677A2D4B9B6BC3F3080307EE37
:1054F000903AF8EE676A97ED026ADFED2A5AC6EE37
:10550000257A76EEA77AF7EE006A77EEA67A67EE4E
:10551000277AC7ED077A00BF204B9B6B5B0A03F02D
:105520007F03013307EE903AB8EE677AD7ED076A4A
:10553000C6EE877AFCEEE77A17EE902A7B681A604F
:10554000164B9B6B1B0C03F07F03013307EE903A65
:10555000B8EE677AD7ED076AC6EE877AFCEEE77A8F
:1055600017EE902A7B685A600C4B9B6B1B0E03F066
:105570007F03013307EE903AB8EE677AD7ED076AFA
:10558000C6EE877AFCEEE77A17EE902A7B689A607F
:1055900000BF2437BD465DF8047B704700440258C5
:1055A0000090D0030000004600093D0000127A0080
:1055B00080B489B000AF78600023BB6101237B61B8
:1055C00000233B610023FB604FF00003BB604FF002
:1055D0000003FB618D4B9B6A03F00303BB618B4BA4
:1055E0009B6A1B0D03F03F037B61884BDB6A03F46E
:1055F00080733B61854B5B6CDB08C3F30C033A693A
:1056000002FB03F307EE903AF8EE677AC7ED027AF1
:10561000BB69012B55D0012B02D3022B72D092E033
:105620007A4B1B6803F02003002B29D0774B1B68B3
:10563000DB0803F00303764A22FA03F3FB60FA68FF
:105640007B69B2FBF3F307EE903AB8EE677A6F4BE3
:105650001B6CC3F3080307EE903AF8EE676A97ED08
:10566000026ADFED6C5AC6EE257A76EEA77AF7EE7F
:10567000006A77EEA67A67EE277AC7ED077A83E0AD
:10568000634A7B69B2FBF3F307EE903AB8EE677AB0
:105690005E4B1B6CC3F3080307EE903AF8EE676AA3
:1056A00097ED026ADFED5B5AC6EE257A76EEA77AB1
:1056B000F7EE006A77EEA67A67EE277AC7ED077AEB
:1056C00062E0554A7B69B2FBF3F307EE903AB8EE1D
:1056D000677A4E4B1B6CC3F3080307EE903AF8EE63
:1056E000676A97ED026ADFED4B5AC6EE257A76EED1
:1056F000A77AF7EE006A77EEA67A67EE277AC7ED0B
:10570000077A41E0454A7B69B2FBF3F307EE903A32
:10571000B8EE677A3D4B1B6CC3F3080307EE903A73
:10572000F8EE676A97ED026ADFED3A5AC6EE257A1F
:1057300076EEA77AF7EE006A77EEA67A67EE277A1A
:10574000C7ED077A20E0344A7B69B2FBF3F307EE3A
:10575000903AB8EE677A2D4B1B6CC3F3080307EE43
:10576000903AF8EE676A97ED026ADFED2A5AC6EEC4
:10577000257A76EEA77AF7EE006A77EEA67A67EEDC
:10578000277AC7ED077A00BF204B1B6C5B0A03F03A
:105790007F03013307EE903AB8EE677AD7ED076AD8
:1057A000C6EE877AFCEEE77A17EE902A7B681A60DD
:1057B000164B1B6C1B0C03F07F03013307EE903A72
:1057C000B8EE677AD7ED076AC6EE877AFCEEE77A1D
:1057D00017EE902A7B685A600C4B1B6C1B0E03F073
:1057E0007F03013307EE903AB8EE677AD7ED076A88
:1057F000C6EE877AFCEEE77A17EE902A7B689A600D
:1058000000BF2437BD465DF8047B70470044025852
:105810000090D0030000004600093D0000127A000D
:1058200080B582B000AFFEF77DF901460D4B9B6954
:1058300003F470624FF480737B607B6893FAA3F388
:105840003B603B68B3FA83F322FA03F3064AD35C66
:1058500021FA03F3054A1360044B1B681846083706
:10586000BD4680BD00440258A0D000080C000024B2
:1058700080B584B000AF786039600023FB737B682B
:105880001B68002B03D07B681B683F2B04D94FF4A7
:105890001A61644804F047FF7B685B68032B04D9F6
:1058A0007B685B68B3F5007F04D940F6A1115D48C1
:1058B00004F039FF7B689B68002B03D07B689B68F2
:1058C000802B04D940F6A211564804F02CFF7B68C7
:1058D0001B69002B03D07B681B69802B04D940F621
:1058E000A311504804F01FFF7B68DB68002B03D036
:1058F0007B68DB68802B04D940F6A411494804F08A
:1059000012FF494B9B6A03F00303032B01D10123D0
:1059100083E0454B1B68444A23F080631360FAF729
:105920008DFEB86008E0FAF789FE0246BB68D31A1C
:10593000022B01D9032370E03B4B1B6803F000638B
:10594000002BF0D1384B9B6A23F47C327B681B68B8
:105950001B03354913438B627B685B68013BC3F3D0
:1059600008027B689B68013B5B029BB21A437B6821
:10597000DB68013B1B0403F4FE031A437B681B69CD
:10598000013B1B0603F0FE43274913438B63264B61
:10599000DB6A23F0C0027B685B6923491343CB6257
:1059A000214BDB6A23F020027B689B691E4913436D
:1059B000CB623B68002B06D11B4BDB6A1A4A43F4CF
:1059C0000023D3620FE03B68012B06D1164BDB6A44
:1059D000154A43F48013D36205E0134BDB6A124A85
:1059E00043F40013D362104B1B680F4A43F08063EB
:1059F0001360FAF723FEB86008E0FAF71FFE0246CC
:105A0000BB68D31A022B01D9032306E0064B1B689F
:105A100003F00063002BF0D0FB7B18461037BD4627
:105A200080BD00BF8CCE00080044025880B584B011
:105A300000AF786039600023FB737B681B68002B24
:105A400003D07B681B683F2B04D940F6FB116448E8
:105A500004F069FE7B685B68032B04D97B685B6894
:105A6000B3F5007F04D940F6FC115D4804F05BFEFD
:105A70007B689B68002B03D07B689B68802B04D9D4
:105A800040F6FD11564804F04EFE7B681B69002B62
:105A900003D07B681B69802B04D940F6FE11504867
:105AA00004F041FE7B68DB68002B03D07B68DB6879
:105AB000802B04D940F6FF11494804F034FE494BCD
:105AC0009B6A03F00303032B01D1012383E0454BC1
:105AD0001B68444A23F080531360FAF7AFFDB860A7
